:020000041000EA
:1000000000200008EB0000100D0000004D01001062
:1000100000000000000000000000000000000000E0
:100020000000000000000000000000004901001076
:10003000000000000000000049010010490100100C
:100040004901001049010010490100104901001048
:100050004901001049010010490100104901001038
:100060004901001049010010490100104901001028
:100070004901001049010010490100104901001018
:1000800010B5064C2378002B07D1054B002B02D06E
:10009000044800E000BF0123237010BDB003000836
:1000A0000000000014150010044B10B5002B03D005
:1000B0000349044800E000BF10BDC0460000000036
:1000C000B4030008141500100230800803D001307A
:1000D0000238FCD1C046C0467047EFF3108072B6BC
:1000E000704780F3108870477047FFF7FDFF72B6C6
:1000F0000F4C104DAC4209DA21686268A368043BDA
:1001000002DBC858D050FAE70C34F3E70A490B4A2F
:100110000020521A02DD043A8850FCDC08480949E4
:100120000860BFF34F8F00F0EDFE00F09BFEFEE78E
:100130002015001038150010B0030008C80500088D
:100140000000000808ED00E0FEE7FEE700B504202F
:100150007146084202D0EFF3098002E0EFF3088015
:10016000043000F091FCFEE7014B18607047C04678
:10017000CC030008044B1B681A00BA3212881B6AB1
:100180005043C0187047C046CC030008A02300B5F8
:100190001B06984226D015D8802825D00AD81028CA
:1001A00024D0402824D000280BD0154809E0A420F2
:1001B000C00306E08022134B520090421CD09842AC
:1001C000F3D100BD104B984218D0104BC018042832
:1001D000EBD800F035FFECEA0F0305000C48F0E720
:1001E0000C48EEE70020ECE70B48EAE70B48E8E7AD
:1001F0000B48E6E70B48E4E71800E2E7A020D7E762
:10020000FF00520006005200090000A0FFFFFF0F90
:10021000020052000300520005005200010050008D
:10022000020050000100520010B50020FFF7A2FFAD
:100230000A4B1C682300BC331B68C0180368002BE2
:100240000ADB074B1868FFF7A1FF012263689A6079
:100250009A68002AFCD110BD0248FCE7CC030008D4
:10026000D003000802005000064B1B68BC331B681B
:10027000C3181B68002B03DA89B241600020704765
:100280000148FCE7CC03000801008A000368002B4A
:1002900004DA89B2C2608160002070470048FCE740
:1002A00001008A00064B1B68BC331B68C3181B681F
:1002B000002B03DAC36800200B6070470148FCE79D
:1002C000CC03000801008A00024B1A68002A00D102
:1002D00018607047E4030008F0B52C244443154827
:1002E0001F0000681E0A0019FF2426402740124CF8
:1002F0001B0C256807602C6A46608360BA352D8820
:100300006F433F190761370080377F01E7190B4DB5
:1003100076014761A4191F043B436419236000233D
:100320008361059BC2610162002B01D01B88838120
:10033000F0BDC046E4030008CC030008081000002C
:10034000F0B5836885B002AD2B800368066A173369
:100350006B804368476A0095826AC16A0400039310
:100360000369C068FFF7B8FF00213B000A003000B6
:100370000091FFF7B1FF2800216B00F039FB00224C
:10038000AB5E002B06DB1F2213401E3A9A4013007F
:10039000014A136005B0F0BD00E100E0F7B52C267E
:1003A000134C70434E43246801932518A4192E69F9
:1003B000002E19D0A069002818D13168002915DA5B
:1003C00001216F680D0063689D40AC4613689DB2C3
:1003D00063461B041D431560F260A161B940019B97
:1003E00089B26362B160FEBD0248FCE70248FAE7E9
:1003F000E403000804028A0007028A0073B500269D
:1004000042690400D56801962B0CB34221D01B042D
:1004100013601368194B00691B68BC331B68C31851
:100420001B68B34215DA01A9FFF73CFFB0420CD1BB
:100430000198E26903681E0CDBB29A4205D9226A70
:100440009B009B58002B00D0984731002069FFF794
:100450000BFFADB2002D09D063691D6000251B683C
:10046000636AAB4205D098476562A56163691B6802
:1004700073BDA36A002BF8D09847F6E7CC030008B9
:100480002C2310B54343034A1068C018FFF7B6FF8A
:1004900010BDC046E40300081A4B70B51A680C0082
:1004A000130033331B7883422AD9002928D00D68E2
:1004B0001F212B000B400D4222D11100BA310988B7
:1004C000126A48431900104D8018286022685209AA
:1004D000934210D30021FFF7C7FE002122002868B5
:1004E000FFF7D4FE011E04D12868FFF7BDFE0028E7
:1004F00000D0064870BD66689A0091510133E5E767
:100500000348F7E7CC030008E803000801018A006C
:1005100003018A0010B504000800002A0CD100294C
:1005200013D10B4B1A681300BA331B88126A63434A
:100530009B18084A136010BD002906D006490860C0
:1005400020004A60FFF7A8FFF5E70448F3E7C0463C
:10055000CC030008E80300087803000803018A00C0
:10056000F7B5184F04003B680191DE683368834299
:1005700026D90025A94202D1FFF7AFFD0500386852
:100580000368002B1ADA1F220123224093406409DA
:100590007268A4001419226813420DD09A43226095
:1005A00000240021FFF760FE019B002B02D12800F0
:1005B000FFF797FD2000FEBD034CF2E7034CF3E785
:1005C000034CF7E7E80300080201880003018800F4
:1005D00004018A000A4B1B68DB681A6882420DD945
:1005E00059681F23420918401E3B8340920050580F
:1005F0001840431E9841034BC01870470248FCE75F
:10060000E80300080001880004018A00054B1B680C
:100610001A0088321B6812689B181868000AC0B25A
:100620007047C046CC030008044B1B681A00883290
:100630001B6812689B181868000E7047CC030008EE
:10064000034BE0308000C0588006800F7047C046E2
:1006500000002640024B18694007C00F7047C04693
:1006600000002740A6220549D2008B580220DB4318
:100670009B0702D00123885818407047000026408D
:1006800010B5FFF7EFFF0023022801D1014B1B68D3
:10069000180010BDF0030008094A83009B18D022FF
:1006A0009200985807221040042807D1C0229200D7
:1006B00098581F2303408020400018437047C046CD
:1006C0000000264010B5FFF7E7FF88235B00984243
:1006D0001AD009D8012811D0022812D0434258411B
:1006E000114B4042184010BD1223FF33984213D0E3
:1006F0001423FF33984214D00020F4E70B4B186802
:10070000F1E7FFF7BDFFEEE7094A0A4BD358002B8C
:10071000F2DA80200002E6E7FFF79CFF0028EBD02A
:10072000F7E7034A044BF1E700127A00EC030008F4
:10073000000026400C0500003C050000B023154ACF
:10074000DB00D35810B59903DB01DB0F890BC371B4
:10075000114B0160D3580F24D904DB01DB0D038159
:10076000B123DB00D358C90C81801900214081726C
:1007700019092140C172D9029B009B0F8373074B5B
:10078000C90CD35881815A05DB01520FDB0D8271F0
:10079000038210BD00002640840500008C05000087
:1007A0008030034BFF308000C058C00F7047C046F8
:1007B0000000264010B5104B421E1B683F331B78CB
:1007C000934216D97F221F2480300C4BFF308000CB
:1007D000C3581A400A701A0C2240180A8A701A016B
:1007E0002040E240487000209B009B0FCA700B71B4
:1007F00010BD0348FCE7C046CC03000800002640BB
:1008000001004A00F0B589B003AC2000FFF796FF65
:10081000B0231A4ADB00D25800239A4203DAA37BA2
:10082000023B5A1E9341E57900266A1E9541013527
:10083000B34220D0A488B4421DD03000039FFFF7FC
:1008400041FF2A00330031000190200000F0AEFC8F
:100850000C00050033003A003100019800F0A6FCBE
:10086000E6076A0832436308801859412A002300CA
:1008700000F07CFC0600300009B0F0BD000026400E
:10088000F7B5234B06001B683F331B78002B08D0BD
:1008900000283BD0834204D36946FFF78BFF041E38
:1008A00001D0002632E03000FFF77AFF2300002855
:1008B00005D06B461C79023C23005A1E93416A46C0
:1008C0005478002BEDD0002CEBD09578002DE8D09B
:1008D00030001778FFF7F6FE002306002A002000FC
:1008E000190000F063FC00230C0005003A00300002
:1008F000190000F05BFCE6076A08324363088018C1
:1009000059412A00230000F031FC06003000FEBDF2
:10091000CC03000810B5041E04D1FFF773FF0028B4
:1009200006D008E0064B1B683F331B78834203D296
:100930002000FFF7C7FE10BDFFF7A2FFEFE7C0469C
:10094000CC03000870B50500FFF77AFEE035074BD1
:10095000AD000400E8580F231840FFF7DBFF012328
:10096000A3405B081818E04070BDC0460000264058
:10097000144B30B51C6823002C331A7807231F2A28
:1009800015D8820815009D432B1E0FD10333184044
:10099000984081402368920020339B180A00FF2171
:1009A00081401C68624011406140196030BD1840B0
:1009B00080231B06184380239B012268C9188900E5
:1009C0008850F3E7CC030008064B10B59A68064C34
:1009D00010308300A24202D19858995010BD034AAA
:1009E000D058FBE700ED00E0000000080000001018
:1009F000F8B506000D0000283AD00023C05E00289C
:100A000028DB7188FFF7B4FF0024FF2203279446F8
:100A10000023F05E71680740FF006646BA40890116
:100A20003140D243B94083B2002815DB114E830810
:100A30009B009B19C026B6009F593A40114399511B
:100A40000D4B9A680D4B9A4202D12900FFF7BCFF6B
:100A50002000F8BD0A4CD8E70F263340083B064E6D
:100A60009B089B009B19DE6932401143D961E7E77F
:100A7000034CEDE700E100E000ED00E000000008BD
:100A800001005600FEE7000002680A4B10B51A602C
:100A900042685A6082689A60C268DA6002691A61C4
:100AA00042695A6182699A61C269DA61FFF7EAFFB5
:100AB00010BDC04690030008B0235B055A78212082
:100AC000002A01D05878C0B27047B0235B059A89DC
:100AD000002A02D0988980B2704780204000FBE74E
:100AE0007FB5274B86000D00F458042901D0012959
:100AF00027D100200FE0A3682B420BD1E368290027
:100B00001A685B6802920193039302A823689847CE
:100B10001C4B1C606469002C0BD01B4B9842EAD123
:100B2000012DE8D1174B18481A68184B9A5104B098
:100B300070BD012DFBD1144B9842F3D0134B9C5147
:100B4000F5E7022915D026006469002CFBD10020AE
:100B5000002EECD0B3682B4209D1F36829001A6843
:100B60005B6802920193039302A833689847366941
:100B7000EEE7044B1B68181ED9D01E69E7E7C04694
:100B80003404000830040008FF0042001C04000880
:100B90001A4B1B68190088311A68096851180968CE
:100BA000016219008C3109685218126842621A00F9
:100BB00046321278002A1FD09A68E0321268D206B4
:100BC0001AD5F222DB68D2019A580260F022D201D3
:100BD0009A5842600A4A9A5882600A4A9A58C260F1
:100BE000094A9A580261094A9A584261084A9A5831
:100BF0008261084A9B58C3617047C046CC03000815
:100C000004780000087800000C78000010780000DC
:100C100014780000187800001A4B1B681A008832FC
:100C2000196812688A18016A11601A008C321968F2
:100C300012688A18416A11601A0046321278002A36
:100C40001ED09A68E0321268D20619D5F0224168A7
:100C5000DB68D201995081680B4A9950C1680B4AF0
:100C6000995001690A4A995041690A4A9950816923
:100C7000094A9950C169094A99500168E832995066
:100C80007047C046CC0300080478000008780000D4
:100C90000C7800001078000014780000187800002C
:100CA000F7B50700FFF708FF5D4D06006B68002BE6
:100CB00000D07DE0FFF711FA6B680090002B00D0A8
:100CC00089E0584C22681300BA33198807234B4334
:100CD000126A9B181A68002AFCDADB68DA0021D550
:100CE0001B0F1B0750480193FFF752FF20684F4925
:100CF000030088331C6803681C1923680B40212EED
:100D000000D06DE0902212011343236003008C3366
:100D100000681B68C318186801400A431A60424BF8
:100D2000019A134380223F4E9205316813430A0013
:100D3000BA321088072200244243096A5218D3604D
:100D400054605368FFF7C1FE80235B0098424AD18C
:100D5000380000F05DFB32681300BA3319880723AE
:100D60004B43126A9B181A68002AFCDADF68FB0002
:100D700003D538010009FFF74FFF2D4B32681F40A4
:100D80001300BA33198807234B43126A00989B1843
:100D90000022DF605A60FFF7A4F9002C0FD16B68C6
:100DA000002B03D008210120FFF79AFE2000FEBD92
:100DB00001210800FFF794FE041E00D17AE76B685A
:100DC000002B03D002210120FFF78AFE194B9C4221
:100DD000ECD0194CEAE704210120FFF781FE70E70F
:100DE0008022520090E733681A00BC32196A1268F8
:100DF00052181168002910DBBA331B889A1813683F
:100E0000002B0ADB04230D4A11690B431361012FE8
:100E100001D030BF9FE720BF9DE7064C9BE7C0464F
:100E200034040008CC030008F4030008FF00FFFFAF
:100E3000FFFFFFDF05004200FF00420000ED00E081
:100E4000C0228020064952008B58C0059B009B0899
:100E500003438B50802388581B0603438B507047F5
:100E60000000264010B562B6034800F0C3F8002029
:100E7000FFF716FFFBE7C0460020001010B500206A
:100E8000FFF7FEFA10BD704710B50020FFF75AFDBE
:100E9000041E28D0144B1860FFF7C6FB411C20002D
:100EA00000F0D8F8114B04001860FFF7AFFB411CAD
:100EB000200000F0CFF804000D4B013C18600D49F4
:100EC000200000F0C7F8FA210B4B013018708900A0
:100ED000200000F0BFF8094B013018600020FFF738
:100EE00031FD074B186010BD880000088C00000819
:100EF0008000000840420F009400000890000008A5
:100F00008400000810B52048FFF72EF9B022E02138
:100F100030201E4CD200A35889005B005B08A35010
:100F200063588343635080235B04A350184B194AD2
:100F3000E250A02204339201E250FF22164BE2500D
:100F4000FFF77EFFC02201215200A3588B43A3501C
:100F5000FFF799FFFFF798FF104B03201A68130063
:100F6000BA33198807234B43126A80219B18002249
:100F7000DA605A600A4AFFF7CDFA0A48FFF7A4F987
:100F80000948FFF7DDF910BD2014001000002640CD
:100F900084050000010002008C050000CC0300085D
:100FA0008003000848040008E01400109023034A5E
:100FB0005B01D058032318407047C0460000204012
:100FC00010B59024FFF789F8074B64011A590749B7
:100FD0001140074A0A431A51102259681142FCD0A5
:100FE000FFF77FF810BDC04600002040FCFF000066
:100FF0000100FA05F8B590260E4C76010700FFF7C0
:101000006CF8A3590500DB439B0701D1FFF7D8FF1C
:1010100080239B00E750A359074A1A40074B13430C
:10102000A351102362681A42FCD02800FFF759F838
:10103000F8BDC04600002040FCFF00000300FA0598
:1010400002B4714649084900095649008E4402BC61
:101050007047C046002243088B4274D303098B4279
:101060005FD3030A8B4244D3030B8B4228D3030C78
:101070008B420DD3FF22090212BA030C8B4202D31A
:101080001212090265D0030B8B4219D300E0090A42
:10109000C30B8B4201D3CB03C01A5241830B8B424B
:1010A00001D38B03C01A5241430B8B4201D34B0334
:1010B000C01A5241030B8B4201D30B03C01A524199
:1010C000C30A8B4201D3CB02C01A5241830A8B421E
:1010D00001D38B02C01A5241430A8B4201D34B0207
:1010E000C01A5241030A8B4201D30B02C01A52416B
:1010F000CDD2C3098B4201D3CB01C01A524183091F
:101100008B4201D38B01C01A524143098B4201D358
:101110004B01C01A524103098B4201D30B01C01A83
:101120005241C3088B4201D3CB00C01A52418308FD
:101130008B4201D38B00C01A524143088B4201D32A
:101140004B00C01A5241411A00D20146524110468A
:101150007047FFE701B5002000F006F802BDC04669
:101160000029F7D076E770477047C046002B11D1B1
:10117000002A0FD1002900D1002802D00021C94344
:10118000080007B4024802A14018029003BDC046FF
:10119000D9FFFFFF03B4684601B5029800F034F8A8
:1011A000019B9E4602B00CBC7047C046F0B5CE46CF
:1011B000474680B5070099463B0C9C4613041B0C20
:1011C0001D000E0061460004140C000C45434B4307
:1011D00060436143C0182C0C20188C46834203D90D
:1011E00080235B029846C444494679437243030C0A
:1011F00063442D042D0CC918000440198918C0BC83
:10120000B946B046F0BDC046F0B557464E464546D5
:10121000DE46E0B504000D009246994683B08B424D
:1012200030D82DD04946504600F0D8F829000600A5
:10123000200000F0D3F8331A9846203B9B4633D465
:101240005A465346934042461F00534693401E0061
:10125000AF423AD8AF4200D178E05B46A41BBD4113
:10126000002B00DA75E00022002300920193012395
:101270005A4693400193012342469340009328E04D
:101280008242CFD900220023009201930C9B002BB5
:1012900001D01C605D600098019903B0F0BCBB46B2
:1012A000B246A946A046F0BD424620239B1A5246AC
:1012B000DA40414613004A468A40170042461F431F
:1012C000534693401E00AF42C4D90022002300922F
:1012D00001934346002BD9D0FB0772081A434646B8
:1012E0007B080EE0AB4201D1A2420CD8A41A9D416A
:1012F000012024196D410021013E24184D41002E8A
:1013000006D0AB42EED9013E24196D41002EF8D132
:10131000009801995B4600196941002B24DB2B00E2
:101320005A464446D3402A00E2401C005B46150062
:10133000002B2ADB26009E40330026004746BE4095
:101340003200801A9941009001919FE7A342BCD8D6
:1013500083E74246202300219B1A0022009101923C
:101360000122DA40019286E7424620239B1A2A0096
:1013700046469A402300F340444613432A00E24085
:101380001C005B461500002BD4DA42462F002023B8
:10139000260097409B1ADE403B003343CDE7C04612
:1013A0001C2101231B04984201D3000C10391B0A95
:1013B000984201D3000A08391B09984201D3000959
:1013C000043902A2105C40187047C04604030202B0
:1013D00001010101000000000000000010B500291B
:1013E00003D1FFF7DDFF203002E00800FFF7D8FF50
:1013F00010BDC046F8B5C046F8BC08BC9E46704754
:10140000F8B5C046F8BC08BC9E4670470000000016
:1014100001B40248844601BC604700BF6102000875
:1014200000002040000024400000004000000000B8
:1014300000002340000030400000314000009F4089
:10144000000022400000104000009D40202020208D
:1014500020101010101D1D8017007500FF030602DC
:1014600006003604102000007FC0000000040000C9
:10147000000000000019324B647D00000000008075
:101480004000080B100000000000FF012002001FB8
:1014900000800004FF081018001000140018001C41
:1014A0004044484C500000000810000008000000B4
:1014B00004000000041000000012000004210000DD
:1014C000002100000016000040114002C413001368
:1014D0008013A01340138813A81320001C000000E1
:1014E00003000000010000000100000000000000F7
:1014F000050360000400000001000000000000007F
:10150000010000000604600008000000A8050008B3
:101510007D0E001000000000F0FCFF7F01000000C5
:1015200000000010000000088000000040150010BE
:1015300080000008F8020000B00300081802000054
:1015400000093D0000093D0000127A0000093D003D
:10155000A00F000004000000A9000010810000108E
:1015600080B230B5C400002820D0114B0722186883
:101570000300BA331B885343026A9A181168002982
:10158000FCDA3E210B4A062511600B4A0B4911601B
:10159000A3210B4AC90055500A495450006A5458B7
:1015A0001B18002058605358002BFCDA30BDC04691
:1015B000CC03000804012640080126401E1F00003D
:1015C000000026401C05000010B54378FF2B11D108
:1015D00000F0FAF80400032000F00EF90121C368BE
:1015E0005B681A680A431A601A680A42FCD1200034
:1015F00000F01AF910BDF7B507000020019100F0C6
:10160000FBF83E4C050023681A005033BC321668C4
:101610001B788619002B59D000F0F6F800900328AB
:101620001AD000F0D1F8364A364B0400D358002BBC
:101630003CDA01212800344A00F0D6F8002835D1E0
:101640000198FFF78DFF002F3ED03368002BFCDBA5
:1016500000F0B2F805002AE0062000F0CDF823687B
:10166000BC331B68C0180368002B02DA274D280022
:10167000FEBD002000F0B0F8254B9842F6D00023C4
:10168000244A19000120126800F0C6F8041EEDD1AA
:10169000002000F0A1F81E4A1F4B904203D09C424C
:1016A000E4D00134F4E79C42BBD1DFE7174D009B47
:1016B000032B05D10121002000F076F80028F9D194
:1016C000200000F0B1F8D2E7144DF0E700F07CF80C
:1016D000012104000C4A280000F086F8002808D1F7
:1016E000002F08D03368002BFCDB00F065F8050004
:1016F000E6E7064DE4E7094DE2E7C046CC03000803
:10170000000026401C050000D00300080500520020
:1017100001018800E0030008F049020001005000C8
:10172000184BF7B51B6818495A6804230C69234302
:101730000B61012824D030BF1300FC331B69002B40
:101740001DD1A324114B12481249E40007681E5909
:101750000D680195104D056006251D513E240C6055
:101760000E4C3E351D511D59002DFCDA0C4CFC323F
:101770001461A322D20007609E50019B0B60F7BD4D
:1017800020BFD9E7CC03000800ED00E000002640B0
:1017900008012640040126401E1F00001C05000011
:1017A000AAAAAAAA0000000001B40248844601BC0B
:1017B000604700BF6105001001B40248844601BCC7
:1017C000604700BF2902001001B40248844601BCF2
:1017D000604700BFDB00001001B40248844601BC32
:1017E000604700BFD505001001B40248844601BC23
:1017F000604700BF8D02001001B40248844601BC5E
:10180000604700BF7501001001B40248844601BC66
:10181000604700BFAD0F001001B40248844601BC10
:10182000604700BF9D03001001B40248844601BC1C
:10183000604700BFE300001000000000000000004F
:101840000000000000000000000000000000000098
:1020000000F80F08252300100D0000009923001090
:10201000992300109923001099230010000000005C
:1020200000000000000000000000000095230010E8
:102030009523001000000000952300109523001048
:102040009523001095230010952300109523001070
:102050009523001095230010952300109523001060
:102060009523001095230010952300109523001050
:102070009523001095230010952300109523001040
:1022E00010B5054C237833B9044B13B10448AFF350
:1022F00000800123237010BDB829000800000000F1
:1023000094DF001008B5034B1BB103490348AFF33A
:10231000008008BD00000000BC29000894DF001008
:1023200070477047FFF7FCFF72B6144C144DAC4277
:1023300009DA21686268A368043BA2BFC858D0507C
:10234000FAE70C34F3E70F490F4A00209142BCBF73
:1023500041F8040BFAE70D480D490860BFF34F8FB1
:1023600000F084F800F068F8FFF7DBFF07F032FCBC
:1023700000F0B5FA07F01AFCFEE70000A0DF00103D
:10238000B8DF0010B8290008CC2E00080020000893
:1023900008ED00E0FEE7FEE700B5042071460842C4
:1023A00002D0EFF3098002E0EFF30880043006F07A
:1023B00033FCFEE708B5012004F0C6FA08BD7047FB
:1023C00010B5002006F05CFB00B910BD0446124BAE
:1023D000186005F05FFD0130B4FBF0F00F4B1860A2
:1023E00005F070FD0130B4FBF0F40D4B1C60013CB6
:1023F0000C4BA3FB04239B0C01330B4A13700B4BB8
:10240000A3FB0434A4090134094B1C60002006F02E
:1024100037FB084B1860D8E7E8220008EC220008D8
:10242000E022000883DE1B43F4220008D34D621033
:10243000F0220008E422000808B5094803F0A2FED3
:10244000FFF7BDFFFFF7BCFF00221146032004F099
:10245000D7FA044804F032F9034804F087F908BDBC
:10246000E0DA0010D4290008CCD20010EFF310817C
:1024700072B6074AD2F8883043F47003C2F8883045
:10248000BFF34F8FBFF36F8F81F31088704700BF8A
:1024900000ED00E008B500F0DBF800F00FF800F008
:1024A000CDF800F047F800F04DF808BD08B500F091
:1024B000CDF900F02DF800F06FF808BD08B50F2138
:1024C000012005F037FC00220F21012005F00CFB54
:1024D0000F21012005F0ECFB0021084605F02AFC45
:1024E00000221146104605F0FFFA0021084605F0CB
:1024F000DFFB0721002005F01DFC0022072110460C
:1025000005F0F2FA0721002005F0D2FB08BD00001B
:1025100008B5054801F044FE044801F041FE0448B6
:1025200001F03EFE08BD00BF08D3001000D300102C
:1025300004D3001008B5002211462F2005F07CFBC3
:1025400008BD000010B50E4C0E4A0021204603F0D5
:10255000CBFF0D4A0121204603F0C6FF04F540746D
:102560000A4A0421204603F0BFFF094A06212046FB
:1025700003F0BAFF074A0721204603F0B5FF10BD5C
:1025800000003140E0D3001018D40010A8D3001090
:1025900070D3001038D3001008B5184801F000FEC1
:1025A000174801F0FDFD174801F0FAFD164801F04B
:1025B000F7FD164801F0F4FD154801F0F1FD15484E
:1025C00001F0EEFD144801F0EBFD144801F0E8FDC8
:1025D000134801F0E5FD134801F0E2FD124801F057
:1025E000DFFD124801F0DCFD114801F0D9FD114872
:1025F00001F0D6FD104801F0D3FD08BD14D4001041
:102600004CD4001020D30010DCD30010A4D3001051
:102610006CD300100CD3001010D3001014D3001092
:1026200018D300101CD3001024D3001028D300109E
:102630002CD3001030D3001034D30010024B3322BF
:102640009A601A61704700BF00203040FEE700002A
:1026500030B583B007220021322005F0EDFA962133
:10266000002006F02BFB06F0BBFAC0B96F4BD3F885
:10267000004F04F03F0406F0A3FA30B1012006F049
:1026800095FA6B4B9B6C002B26DB684BC3F8004F15
:1026900005F0FEFC05F0F2FC012005F00DFD012027
:1026A00006F01CFE06F0C2FD06F09CFE06F086FE5B
:1026B00005F0EAFD0021084605F088FC002005F041
:1026C000F3FB012005F0D8FB002005F065FB594B1A
:1026D0001B6893F83F4006E00620FFF7B7FF20464F
:1026E00005F00EFF013C002CF9D10021012005F07E
:1026F00017FD002005F058FC00287BD0002108467B
:1027000005F00EFD0021084605F02EFC4A4D002480
:102710000094234622462146284603F001FE0094F9
:10272000234622460121284603F0FAFD434805F0DE
:1027300087FC00286AD1012005F08EFB002005F0FF
:10274000B3FB002005F098FB002005F025FB0021DD
:10275000012005F0E5FC0021084605F0E1FC002120
:10276000022005F0DDFC0021032005F0D9FC00214A
:10277000042005F0D5FC0021052005F0D1FC3048EF
:1027800005F09CFD002844D12E4805F047FE0028A6
:1027900042D10021084605F0E7FB0021084605F07C
:1027A00015FC2949012005F0D1FEC0BB42F2107191
:1027B000012005F059FFA8BB05F044FB002005F0FF
:1027C00015FB002005F028FB05F032FB0021084630
:1027D00006F068FE012005F0F9FA05F04FFC012033
:1027E00005F06AFC6421002006F068FAFFF7E8FDB6
:1027F00003B030BD05F0C2FC40F2111398427FF4E3
:102800007DAF0121002005F0AFFB77E70520FFF742
:102810001DFF0420FFF71AFF0420FFF717FF032016
:10282000FFF714FF0320FFF711FF00BF00F0274060
:1028300000002740A02D00080000314040420F005A
:1028400050D40010400D03007CD4001008B5094896
:1028500001F0A6FC084801F0A3FC084801F0A0FC28
:10286000074801F09DFC074801F09AFC064801F07A
:1028700097FC08BD64D4001068D400106CD400101C
:1028800070D4001074D4001078D4001008B5044837
:1028900006F096FB08B1002008BD0248FCE700BF27
:1028A000F82200080000020610B501F077FC04468B
:1028B00038B154B1FFF7EEFDFFF7F8FD5CB12046EB
:1028C00010BD02F0DBFE0446F3E740F6E4410020D1
:1028D00002F01CFFEEE7FFF7D9FF0446EFE708B56B
:1028E000FFF7E2FF00B101BE62B64FF4E132022110
:1028F000032006F02FFE00B101BE00F00DF830B14C
:1029000001BE04E001BE4FF47A7002F009FF00F04E
:1029100045F80028F6D1F6E710B586B00123062267
:102920001946632001F036FB00B101BE0023049379
:102930000393082202920193FF23009362236122F2
:102940006021104802F000FC00B101BE0E490D48A4
:1029500002F0BCF800B101BE63220A490B4806F040
:1029600053FF044638B10A4B19780A4807F0D8FDDE
:10297000204606B010BD064B01221A70064807F02B
:1029800055FEF5E75C2B000800127A00CC2B0008FE
:10299000642C000884D40010A4D4001010B512498F
:1029A000124806F05BFF08B1002010BD0E4CB4F9D0
:1029B0000430B4F90220B4F900100D4807F0B0FD5E
:1029C000B4F91030B4F90E20B4F90C10094807F02E
:1029D000A7FDB4F91C30B4F91A20B4F91810064850
:1029E00007F09EFDE0E700BF442C0008CC2B000858
:1029F000BCD40010D8D40010F8D40010000000009F
:102A00000230800803D001300238FCD100BF00BF83
:102A10007047EFF3108072B6704780F310887047EC
:102A200050B1C2695AB1026A62B1436A0BB1002067
:102A300070474FF0FF3070474FF0FF3070474FF056
:102A4000FF3070474FF0FF3070470222C2710823F9
:102A500043711021017103218171C27343731423E7
:102A600003730023837343688360C3680361704703
:102A70004B790C2B0BD84A7A93420BD0027802F098
:102A8000F00203F00F0313430370002070476FF050
:102A90000300704700207047CB79072B0CD8CA7A07
:102AA00093420CD0027802F08F021B0103F07003F6
:102AB00013430370002070476FF00300704700203D
:102AC00070478B790C2B0BD88A7A93420BD0027803
:102AD00002F0F00203F00F0313430370002070476D
:102AE0006FF003007047002070474B7B0D2B0BD815
:102AF0004A7C93420BD0027802F0F00203F00F03FD
:102B000013430370002070476FF0030070470020EC
:102B10007047CB7B022B09D8027802F0CF021B0151
:102B200003F0300313430370002070476FF003007D
:102B300070478B7B042B0BD88A7C93420BD0027896
:102B400002F0F80203F007031343037000207047FC
:102B50006FF003007047002070470B7DC3F38103C3
:102B6000032B13D8DFE803F002060A0E01230380CB
:102B70000020704702230380002070470623038053
:102B80000020704708230380002070476FF0040086
:102B900070478BB110B59C46DC6984B192B19B78CB
:102BA000012B06D013460A4601469CF80100A047B7
:102BB00010BD40F08000F5E74FF0FF3070474FF058
:102BC000FF30F5E76FF00B00F2E738B504460D462D
:102BD0000B46022201464020FFF7DBFF00B138BD63
:102BE00029462046FFF744FF0028F8D12946204611
:102BF000FFF752FF0028F2D12946601CFFF761FF62
:102C0000EDE738B504460D460B4602220146422048
:102C1000FFF7BFFF00B138BD29462046FFF765FF2B
:102C20000028F8D129462046FFF773FF0028F2D18B
:102C30002946601CFFF77DFFEDE700B583B0034632
:102C400000228DF8072001220DF107010220FFF775
:102C5000A0FF9DF807305B088DF8073003F00F03E5
:102C60008DF80730012B08D0022B09D0032B0AD096
:102C7000072B0BD003B05DF804FB6FF00500F9E7FC
:102C80006FF00600F6E76FF00700F3E76FF008005B
:102C9000F0E730B585B005460C461346002101919A
:102CA00002918DF80C10821D01A91220FFF771FF0F
:102CB00058BB02469DF805301B021BB29DF804105C
:102CC0000B4323809DF807301B021BB29DF80610B2
:102CD0000B4363809DF809301B021BB29DF808105E
:102CE0000B43A380032D04D00023A360104605B03E
:102CF00030BD9DF80A109DF80B009DF80C301B04A8
:102D000043EA00230B43A360F0E76FF00102EDE715
:102D100010B584B00C461346002100910191029138
:102D2000CDF80B1020BB062269460C20FFF731FFBF
:102D30000246002848D19DF801301B021BB29DF8C5
:102D400000100B4323809DF803301B021BB29DF83B
:102D500002100B4363809DF805301B021BB29DF8E7
:102D600004100B43A3800023A360104604B010BDE1
:102D700002460C3269460C20FFF70BFF024630BBBF
:102D80009DF801301B021BB29DF800100B432380FD
:102D90009DF803301B021BB29DF802100B436380A9
:102DA0009DF805301B021BB29DF804100B43A38055
:102DB0009DF80C109DF80D009DF80E301B0443EAA1
:102DC00000230B43A360D0E76FF00102CDE76FF063
:102DD0000102CAE770B584B006460D4614460022CB
:102DE000009201920292CDF80B2000F10C0269468C
:102DF0000C20FFF7CEFE002845D102469DF8013099
:102E00001B021BB29DF800100B4323809DF803307A
:102E10001B021BB29DF802100B4363809DF8053026
:102E20001B021BB29DF804100B43A3809DF80730D2
:102E30001B021BB29DF806100B432B809DF8093036
:102E40001B021BB29DF808100B436B809DF80B30E2
:102E50001B021BB29DF80A100B43AB80032E05D05A
:102E60000023AB60A360104604B070BD9DF80C1049
:102E70009DF80D009DF80E301B0443EA00230B4320
:102E8000AB60A360EFE76FF00102ECE72DE9F843D8
:102E9000002B37D00546894690461E461C6A002CFA
:102EA00033D0002A34D09B78012B08D0337A112BF1
:102EB00008D0337C152B05D0002427461EE000F0F7
:102EC0007F05F3E743464A4629467078A047074600
:102ED000736A01209847F7B93846BDE8F883376A26
:102EE000012309EB040229467078B84707460135EB
:102EF000EDB2736A012098470134E4B2A3B24345AE
:102F0000EDD3E8E74FF0FF37E6E74FF0FF37E3E7B1
:102F10006FF00B07E0E76FF00107DDE710B582B057
:102F200004460023ADF80430014601A8FFF74DFE2A
:102F300008B102B010BD2346012201A94020FFF7CD
:102F4000A5FF0028F5D163796372E379E372234624
:102F500001220DF105014120FFF798FF0028E8D17B
:102F6000A379A372E5E710B582B004460023ADF85B
:102F70000430014601A8FFF744FE08B102B010BDBD
:102F80002346012201A94220FFF780FF0028F5D146
:102F9000637B6374E37BE374234601220DF1050137
:102FA0004320FFF773FF0028E8D1A37BA374E5E774
:102FB00030B583B004460D4600238DF807300B462C
:102FC000012201464020FFF7E4FD38B92B79122B8E
:102FD00006D0227894F90030002B15DB03B030BD09
:102FE000237863F07F0323702B4601222146402083
:102FF000FFF74CFF0028F1D12B4602220DF107010B
:103000005820FFF743FFE9E702F07F0222702B46CA
:10301000012221464020FFF739FFDFE730B583B0BA
:1030200000238DF807300279A2F11003DBB2022BE6
:1030300020D80446037A9A4203D10025284603B0DB
:1030400030BD01460DF10700FFF7B2FF054600282D
:10305000F4D123460122211D7E20FFF717FF0546EC
:10306000237A102B02D023792372E7E7636A0520C5
:103070009847F8E76FF00305E0E738B50446027BB0
:10308000A2F11403DBB2012B01D9172A20D1237C32
:103090009A4202D10025284638BD2346012204F178
:1030A0000C017E20FFF7F2FE0546237C142B04D092
:1030B000172B06D0237B2374EDE7636A51209847D2
:1030C000F8E7237B152BF5D1636A0A209847F1E7CF
:1030D0006FF00305DFE72DE9F04F85B0824691469A
:1030E0001F460E9D8DF807100024029403945FFA8A
:1030F00080FBD8462646B3B2BB423AD22B460122C9
:103100000DF107014D20FFF7C1FE04466B6A0A204E
:103110009847002CEFD12B46524602A90420FFF716
:1031200038FD044618BBBA4503D95FFA87F8002377
:1031300013E0BB1B5345FADA5FFA87F8A8EB0608E1
:103140005FFA88F8F3E7F21803F11001694411F807
:10315000081C09F802100133DBB24345F3D39DF894
:1031600007305B448DF807305E44F6B2C3E76FF07A
:103170000104204605B0BDE8F08F10B582B00446CA
:1031800000238DF8073019238DF8063003460122FD
:103190000DF106017E20FFF779FE80B9636A0120F8
:1031A0009847234601220DF107016B20FFF7F1FC40
:1031B0009DF8073043F020038DF8073008B102B0C6
:1031C00010BD234601220DF107016B20FFF75EFEC3
:1031D000F5E730B583B00446034601220DF107013F
:1031E0004420FFF7D6FC054610B1284603B030BD99
:1031F000237DC3F303138DF80730234601220DF11D
:1032000007014420FFF742FE0546636A0A209847FB
:10321000EBE730B583B0B6238DF8073010B3054621
:10322000436A13B3034601220DF107017E20FFF725
:103230002DFE04466B6A0120984714B9AB78012B28
:1032400003D05CB1204603B030BD2B4601220DF106
:1032500007017F20FFF79DFC0446F2E72846FFF7B1
:10326000F4FBEFE74FF0FF34ECE74FF0FF34E9E712
:1032700030B583B00446FFF7D3FB10B9A378012B18
:1032800004D008BB0023237003220EE02346012252
:103290000DF107017F20FFF77CFCF2E723460122B6
:1032A00021460020FFF775FC2A46531EDDB212B1FD
:1032B0002378D82BF2D148B92378D82B09D1FF2312
:1032C000E3702046FFF7A5FF03B030BD6FF00200AA
:1032D000FAE76FF00200F7E758B110B50446436A09
:1032E00053B1FFF79BFE00B110BD2046FFF7C5FEAE
:1032F000FAE74FF0FF3070474FF0FF30F4E7A8B126
:1033000010B50446436AA3B1FFF708FE00B110BD33
:103310002046FFF728FE0028F9D12046FFF7DCFF02
:103320000028F4D12046FFF788FCF0E74FF0FF308B
:1033300070474FF0FF30EAE710B584461446C0F3FB
:1033400080000CF003021CF0040F00D00320CBB16E
:10335000022A0BD0032A0FD0012A02D06FF00400FA
:1033600010BD91B11A46FFF794FCF9E784B11A46F3
:103370002146FFF7CDFCF3E76CB179B12246FFF7A8
:1033800029FDEDE74FF0FF30EAE74FF0FF30E7E7C8
:103390004FF0FF30E4E74FF0FF30E1E74FF0FF3050
:1033A000DEE7F0B585B00E460021ADF80E10CBB1CA
:1033B000054617461C46DB69BBB1237D13F0010FA0
:1033C00016D021460DF10E00FFF7C7FB08B105B07E
:1033D000F0BD00943B4632462946BDF80E00FFF78B
:1033E0007AFEF4E74FF0FF30F1E74FF0FF30EEE701
:1033F0006FF00400EBE72DE9F04182B08DF8070093
:103400009BB30F4616461D461B6AA3B34FF0000838
:10341000444603E008F101035FFA83F81FFA88F3DA
:10342000B34224D22B46012239464F20FFF72EFD0E
:1034300004466B6A0A209847002CEBD12B460122E8
:103440000DF107014E20FFF721FD04466B6A0A20AB
:103450009847002CDED1731E9845DBDA01379DF8C2
:10346000073001338DF80730D4E74FF0FF342046A2
:1034700002B0BDE8F0814FF0FF34F8E730B583B01B
:103480000446437D5B008DF8043000238DF8053041
:10349000034601220DF105014C20FFF77AFB05469A
:1034A00010B1284603B030BD9DF9053003F07F030D
:1034B000217DC1F3400243EAC2135AB28DF80530B0
:1034C00022F00303C1F381010B438DF8053023463D
:1034D000022201A94B20FFF7D9FC0546636A0A20A6
:1034E0009847DEE710B50446FFF747FE00B110BD70
:1034F0002046FFF7C3FFFAE710B50446FFF790FA3E
:1035000038B9237D13F0010F06D02046FFF7EAFFFC
:1035100010BD4FF0FF30FBE76FF00400F8E738B55F
:1035200005460C460846FFF77BFAF8B9237D13F0F1
:10353000010F1ED02346012229464D20FFF7A6FC8D
:103540000546636A0A2098470DB1284638BD2046D3
:10355000FFF73FFE05460028F7D1237D6FF34103B7
:1035600023752046FFF78AFF0546EEE74FF0FF354B
:10357000EBE76FF00405E8E738B505460C4608466A
:10358000FFF74EFA58B9237D03F00303012B09D14D
:103590002346082229460420FFF7FBFA38BD4FF0E6
:1035A000FF30FBE76FF00400F8E760B1C2686AB172
:1035B000026972B142697AB143680BB10020704769
:1035C0004FF0FF3070474FF0FF3070474FF0FF3043
:1035D00070474FF0FF3070474FF0FF3070470000EA
:1035E00010F5805F48D011B9D18C002946D0002950
:1035F00046D000B5D38C9B0393FBF1F39BB2A3F5AC
:1036000080431BB203FB03FC92F925E06146BCF149
:10361000000F22DBC91192F824C00CFB03F3DB017D
:1036200001FB0E33002B1BDB5B1203F5801392F9B9
:103630001A10A03101FB03F3002B14DB1B1300FB5A
:1036400003F3002B12DB43F34F3392F9180013EB13
:10365000C0030FD418115DF804FB0CF17F01D9E70A
:1036600003F2FF13E0E703F6FF73E7E703F5FF5309
:103670001F33E8E70F33EDE7024870470148704712
:10368000004870470080FFFF10F5805F48D011B9F7
:10369000D18C002946D0002946D000B5D38C9B039D
:1036A00093FBF1F39BB2A3F580431BB203FB03FC36
:1036B00092F925E06146BCF1000F22DBC91192F8B6
:1036C00024C00CFB03F3DB0101FB0E33002B1BDBDF
:1036D0005B1292F91B10A03103F5801301FB03F379
:1036E000002B14DB1B1300FB03F3002B12DB43F353
:1036F0004F3392F9190013EBC0030FD418115DF882
:1037000004FB0CF17F01D9E703F2FF13E0E703F6B6
:10371000FF73E7E703F5FF531F33E8E70F33EDE7E8
:103720000248704701487047004870470080FFFF1B
:1037300010F5804F3FD030B4B2F91E40002C3DD080
:10374000958B002D3ED000293ED0D38C002B3DD050
:10375000CB1A1BB2B2F920C003FB0CF3002B1ADB0F
:103760004FEAA30CB2F92230C31ADB0309B205FBFE
:1037700001F14A0012F500420FD4A3EB0C0304EB55
:10378000224293FBF2F3B3F5004F0ADA13F5004F30
:1037900009DC0F4B07E00333E2E702F57F42FF321B
:1037A000EBE747F6FF731846002B01DB001106E03C
:1037B00003F10F00FAE7074800B27047054800B26E
:1037C00030BC70470348FAE70248F8E70148F6E7DB
:1037D0000180FFFF0080FFFF2DE9F04107460D4605
:1037E00016461C461846FFF7E0FE60B980466DB1EC
:1037F0007EB163683246294638462569A84720725B
:103800004046BDE8F0814FF0FF38F9E74FF0FF3850
:10381000F6E74FF0FF38F3E700B583B00B46C27808
:103820008DF8072001220DF107015120FFF7D4FF89
:1038300003B05DF804FB00B583B00B4602798DF848
:10384000072001220DF107015220FFF7C5FF03B049
:103850005DF804FB2DE9F04106460F4690461C46F4
:103860001846FFF7A2FE80B905468FB16378012B99
:1038700001D046F080066368424639463046E66825
:10388000B04720722846BDE8F0814FF0FF35F9E7D8
:103890004FF0FF35F6E730B583B005460C46002300
:1038A0008DF807300B4601220DF107014B20FFF781
:1038B000D1FF08B103B030BD9DF8073023F00103FC
:1038C0005BB205F0010213438DF807302346012255
:1038D0000DF107014B20FFF77FFF0028EAD184F8A4
:1038E0002A50E7E738B50446FFF75FFE054610B9F2
:1038F00094F82A300BB1284638BD21460120FFF745
:10390000CAFF05466369616840F6B8309847F2E738
:1039100010B586B004460022ADF81420049201923E
:103920000292ADF80C200346022205A95D20FFF7A4
:1039300091FF08B106B010BD2346042204A96220FD
:10394000FFF788FF0028F5D123460A2201A9682045
:10395000FFF780FF0028EDD19DF9143023769DF903
:10396000153063769DF91230A3769DF91330E37616
:103970009DF807209DF8063043EA0223A3839DF8B3
:1039800005209DF8043043EA0223E3839DF80B20D1
:103990009DF80A3043EA022323849DF811209DF804
:1039A000103043EA022363849DF80D3084F82430FC
:1039B0009DF90C3084F825309DF809301B0203F482
:1039C000FE439DF808201343E384B3E710B582B0AB
:1039D000044600238DF8073001460120FFF75BFF06
:1039E00080B96369616840F6B83098472346012280
:1039F0000DF107014020FFF72DFF18B99DF80730A2
:103A0000322B01D002B010BD23702046FFF780FF9B
:103A1000F8E730B583B004460D460B4601220DF1A0
:103A200007014C20FFF716FF08B103B030BD9DF829
:103A3000070020F0060043B2600000F006001843C3
:103A40008DF807002B4601220DF107014C20FFF7EE
:103A5000C3FEEAE730B583B005460C460B460122AB
:103A60000DF107014C20FFF7F5FE08B103B030BDA2
:103A70009DF8073023F038035BB2AA78D20002F039
:103A8000380213438DF80730234601220DF1070158
:103A90004C20FFF7A1FEE9E738B504460D46FFF7D5
:103AA000D9FF00B138BD29462046FFF7B5FE0028F2
:103AB000F8D129462046FFF7BEFEF3E738B50546A4
:103AC0000C460846FFF771FD30BB6D78042D24D8F5
:103AD000DFE805F0030C23151E002046FFF702FF68
:103AE000D0B921462846FFF794FF15E02046FFF79E
:103AF000F9FE88B921462846FFF78BFF0CE02046E7
:103B0000FFF7F0FE40B921462846FFF782FF03E0A9
:103B100021460020FFF7BFFE38BD6FF00200FBE733
:103B200038B504460D460846FFF73FFD80B9637976
:103B3000013B032B2ED8DFE803F0020C17220023F1
:103B4000A3700123E370237129462046FFF7A4FFE9
:103B500038BD0023A3700423E37007232371294693
:103B60002046FFF799FFF3E70523A3701723E370BF
:103B70002923237129462046FFF78EFFE8E700231B
:103B8000A3700723E3700D23237129462046FFF716
:103B900083FFDDE76FF00200DAE72DE9F04383B041
:103BA00004460E4615461046FFF7FFFC81460028E6
:103BB0003FD1002C3DD02078C308237094F9010038
:103BC00080B2400100B21843ADF8000094F80280C2
:103BD0004FEAD80884F8028094F903309BB25B0165
:103BE0001BB248EA0308ADF8028027797F082771E5
:103BF00094F905309BB2DB011BB21F43ADF8047092
:103C0000A3799B08A371E47943EA8414ADF80640D4
:103C10002A462146FFF7E4FC30802A4621464046EA
:103C2000FFF732FD70802A4621463846FFF780FDB7
:103C3000B080484603B0BDE8F083000001BE0148F3
:103C4000704700BF02020204024B0B60092313609D
:103C5000002070471423000808B5407804F010FFD6
:103C600008BD000038B5054614468A4294BF0023BB
:103C70000123834209D080F001038A422CBF002136
:103C800001218B4201D04DB138BD05F0C9FA05497B
:103C9000A1FB0431890C05F011F8F4E7FEF790FB65
:103CA000F2E700BF83DE1B432DE9F04104460A78AA
:103CB000A2F10D03DBB2012B04D90F2A2FD14E78CC
:103CC000013600E04E78002004F0A0F907460020FD
:103CD00004F06AF904F0B4FE20FA07F8304604F064
:103CE000AFFE20FA07F763786BB1F1B2607804F0A9
:103CF0003BF9054663789BB958B93A4641460020DE
:103D0000FFF7B0FF0CE03A4641460120FFF7AAFF5B
:103D1000EBE7424639460020FFF7A4FF00E0024DE2
:103D20002846BDE8F08100BF01020204F8B505464F
:103D30000139072935D8DFE801F004263406343488
:103D40003424002600E00226002004F05FF9074634
:103D5000002004F029F904F073FE20FA07F720FA96
:103D600006F46B788BB13146687804F02FF906467B
:103D70006B78BBB978B9224639460020FFF772FF4D
:103D800010E00326E0E70126DEE72246394601205F
:103D9000FFF768FFE7E73A4621460020FFF762FF9A
:103DA00000E0014E3046F8BD0002020408B519B12A
:103DB000407804F093F808BD407804F0B9F8FAE7C9
:103DC00008B5407804F0A2F808BD08B590F800C026
:103DD0001CF0020F06D14A1E41780CF0030003F0DC
:103DE00083FE08BD00234A1E41780CF0030003F057
:103DF000BDFEF6E708B531B10378417803F0030062
:103E000003F056FF08BD0378417803F0030003F088
:103E100091FFF7E700487047F0D800102DE9F04116
:103E200082B007460D469046084602F012F9C6B227
:103E3000002401E00134E4B2B44213D205238DF82A
:103E400004308DF805508DF8064001A800F0A8F95F
:103E500003460028EED13D707C700122BA70C7F88D
:103E6000048000E0024B184602B0BDE8F08100BFBC
:103E7000020E020430B583B00C46054678B184B119
:103E800005238DF8043023788DF8053063788DF89C
:103E9000063001A800F084F928B103B030BD01BE9E
:103EA000EDE701BEECE7226863682A606B600123DE
:103EB000AB70F2E710B5034648B11878122808D065
:103EC00003280AD9586844681846A04710BD01BEA7
:103ED000F3E71846FFF76AFFF8E71846FFF78AFF8F
:103EE000F4E708B5034648B11A78122A08D0032A25
:103EF0000AD95A6812691846904708BD01BEF3E70F
:103F00001846FFF713FFF8E71846FFF75EFFF4E7E0
:103F100010B582B0044690B1A37803B901BE052361
:103F20008DF8043023788DF8053063788DF80630ED
:103F300001A800F079F90023A37002B010BD01BE02
:103F4000EAE708281CD8DFE800F00923051E0B0D5E
:103F50000F1113000A20012917D07047082070475D
:103F60000C20F8E70D20F6E70E20F4E70F20F2E72B
:103F70004B1EDBB2012B01D90820ECE70E20EAE74B
:103F800001BE0820E7E70B20E5E700F007007047D7
:103F90000020E2E72DE9F04387B00F4616461D46A4
:103FA0002F4B1B78FBB94FF0000C07E02D4C002382
:103FB00044F82C300CF1010C5FFA8CFCBCF10E0FB4
:103FC000F4D94FF0000C08E0264B03EB4C03002221
:103FD0009A870CF1010C5FFA8CFCBCF1050FF3D948
:103FE0001F4B01221A700B238DF80830C4088DF87E
:103FF000094000F007088DF80A80029BADF81430E4
:104000001B0C8DF81630059BADF810301B0C8DF88D
:104010001230049BADF80C301B0C8DF80E3003A849
:1040200000F0BEF8814618B1484607B0BDE8F083FD
:1040300039463046FFF785FF02460E2C0BD80A4B57
:104040001B68986900EBC410002300932B4641467F
:1040500002F066F9E8E7044B1B689869F4E700BFD3
:10406000652C0008D8280008A02D000870B5042889
:104070000DD00D46114602463C4C34F810E0441C6D
:104080001D2C07D8E4B2394E36F8144004E00D2553
:104090000520F0E740F231144FF0010C0CFA02FC5D
:1040A000334A0CEA02023AB9AE44A3F800E01B8896
:1040B000A34258D2002070BDC21E182A32D8DFE8B1
:1040C00002F00D313431310F2531293131313131A7
:1040D0002B312D3131313131312F2700254A00E08C
:1040E000254A1C80002AE2D00338182836D8DFE899
:1040F00000F01E353835351E2F353135353535351F
:104100001E351E353535353535331E001B4AE8E77B
:104110001B4AE6E71B4AE4E71B4AE2E71B4AE0E7E3
:104120001B4ADEE701BE0022DBE71A4AD9E7012677
:10413000B542BCD232F81500704411FA80F11980F2
:10414000691CB142B3DA32F811407444A4B2AEE74C
:104150000226EDE71026EBE70226E9E701BE00267E
:10416000E6E71A26E4E70C48A5E700BFA0D900104F
:10417000280B0A0C30D9001068D900106CD9001037
:104180009CD9001070D9001090D9001094D900105B
:1041900098D9001034D90010000E02040020704796
:1041A000F0B583B004460027FEF733FC06460DF158
:1041B0000603A27861782078FFF758FF054668B9B2
:1041C000BDF80630C3F3C70203F007031449895C46
:1041D000012202FA03F3194218BF174605B9EFB9D5
:1041E0002DB13046FEF719FC284603B0F0BD0DF1A5
:1041F0000603A27861782078FFF738FF054600288B
:10420000EFD1BDF80630C3F3C70103F0070304483C
:1042100001229A40435C13434354E2E7014DE0E737
:10422000682C0008010E020430B583B00446FEF786
:10423000F0FB05460DF10603A27861782078FFF7C0
:1042400015FF024660B9BDF80630C3F3C70003F09E
:104250000703074C01219940235C23EA01032354FF
:1042600002B101BE2846FEF7D8FB03B030BD00BF47
:10427000682C000870B582B00D468378772B16D86D
:10428000DA08134909688E6906EBC216C27803F092
:104290000704009201232A462146304602F040F8E6
:1042A0000A2D08D00B2D0CD0002002B070BD084A9A
:1042B00012689669EAE701222146304602F08AF840
:1042C000F2E700222146304602F084F8ECE700BF16
:1042D000A02D000810B582B00146772810D8C30879
:1042E000094A1268906900EBC3100024009401236E
:1042F000082201F0070102F013F8204602B010BDB9
:10430000014B1B689869F0E7A02D000800B583B049
:10431000ADF8000001911146684604F0F7FB03B0C8
:104320005DF804FB123820282AD8DFE800F01F29A6
:1043300029292929292929292929292929292929ED
:10434000292929112C131517191B1D212325270095
:1043500000207047022070470320704704207047F8
:1043600005207047062070470720704708207047D7
:10437000092070470A2070470B2070470C207047B7
:1043800001BE0020704701207047000038B5034689
:10439000084850F82340084850F8235044B12DB144
:1043A000002318460BB92046A84738BD0123F8E77B
:1043B0000123F6E7C42C0008902C00082DE9F041F9
:1043C00005468846084601F02CFE064600240127D3
:1043D00018E0022229463046FFF7D8FF0136F6B230
:1043E000B442F6D8B8F1020F1BD0B8F1080F18D0BC
:1043F000B8F1010F18D1BFB10D4B01221A7013E0B3
:104400000134E4B20C2CEDD8324629462046FFF7A1
:10441000BDFF07460028F3D1B8F1010FF0D1002607
:10442000DEE7034B00221A703846BDE8F08100BF7A
:104430008F2C000808B5EFF30580103800B240F269
:10444000FF33984205D0FFF76DFF034B53F8200070
:1044500008BD0020FCE700BFC42C00082DE9F04394
:1044600083B080460E4617469946002416E099F818
:1044700002206B789A4201D0002325E0012323E03B
:1044800017238DF80430735C8DF805306B788DF848
:10449000063001A8FFF784FEC8B10134BC421AD22D
:1044A000A10006EB840595F802C0C445F5D1B9F129
:1044B000000FE5D099F80030172BE1D199F80120D1
:1044C000735C9A42D3D00023002BE6D004E001A80D
:1044D000FFF7AAFE00E00025284603B0BDE8F08300
:1044E0002DE9F04383B007460D4616460024A14649
:1044F00000E00134B44220D24FEA840805EB840383
:1045000093F802C0BC45F4D117228DF8042015F8A9
:1045100024208DF805205B788DF8063001A8FFF780
:104520003FFE0028E5D101A8FFF77EFE15F8082020
:104530000123934049EA0309DBE7484603B0BDE89D
:10454000F0830000014B1878704700BF8F2C0008E3
:1045500008B5124B43F82010114B43F820200023DC
:104560001A4601E00133DBB20C2B08D80B4850F897
:1045700023000028F6D0012A07D00132F2E72AB939
:1045800001B101BE074801F06DF808BD012AFCD158
:104590000029FAD0034801F059F8F6E7C42C0008C6
:1045A000902C00083823000800F00600042807D0EB
:1045B000062807D0022801D000207047012070474C
:1045C00002207047032070478278931EDBB2012BD4
:1045D0000FD90023012A10D0032A0CD0002202F0A8
:1045E000FF0102B102210B43027C42B901201843B2
:1045F00070470423EEE70122F1E70122EFE70020F4
:10460000F5E700002DE9F84380460F4691461E4627
:104610000024032C13D80B4B53F824203346920864
:10462000094D55F824104046FFF718FF386010B9BF
:104630000134E4B2EDE789F80040002000E00348CF
:10464000BDE8F88370DA001060DA0010081902047F
:1046500008B5C37FA3B943189B7AFF2B10D0084439
:10466000817B09B982F00102D908772B09D8074864
:104670000068806900EBC11003F0070101F0AAFE99
:1046800008BD024909688869F6E700BFA02D000847
:104690002DE9F04383B02C4D2E68FFF7CBFE286048
:1046A00048B10446054655F8240B294602F0F2FDB0
:1046B00094F8603013B903B0BDE8F0832946206850
:1046C00002F034FD10F0010F0BD1A16D61B1022396
:1046D000A4F84C300022A265E36D2068009502F03A
:1046E0009BFC194B1E60E6E7D4F85080B8F1000F30
:1046F00020D00123A4F84C30676D9F420BD804F101
:104700004E0900232365206800953B4642464946F2
:1047100002F082FCE5E7013F08EB03093A4694F812
:104720004E10484605F088FA236D3B44236501236B
:104730006365E8E70022A4F84C2084F86020A17C9F
:104740002046FFF785FFCCE7F82C000800B583B0C2
:104750000B4650F8241B00910190022B05D0042B2E
:104760000BD0012003B05DF804FB1146684602F04F
:10477000DFFCB0FA80F04009F4E71146684602F029
:1047800049FDB0FA80F04009ECE700002DE9F04F58
:1047900083B00C4690460546F0B1287D697D00F057
:1047A000030003F0C7FA04F07BF90646EB7FABBBCE
:1047B0004FF0000ACDF804A04FF0FF3B0427102F64
:1047C00028D804FB07F9B14508D9042F06D12B4C92
:1047D000204603B0BDE8F08F01BEDEE7B14511D839
:1047E00004F05EF900EB5900B0FBF9F0B6FBF0F312
:1047F00099450AD9A9EB03039B4503D943B18246E6
:1048000001979B460137FFB2D9E7A3EB0903F3E712
:1048100082460197019B88F800301BE007EE904A22
:10482000F8EE677AF7EE006A86EEA77ADFED147A83
:1048300067EE277A9FED137A77EEC77ADFED126A7B
:1048400086EEA77ABCEEC77A17EE103A834213D8E9
:104850004FF0010A287D0AF1FF32697D00F0030064
:1048600003F042F904460028B2D1287D697D00F0AA
:10487000030003F01DFAABE7004CA9E7011902049D
:104880000024F448CC28163D001B374A2DE9F04F90
:1048900083B0984600238DF80730FF2900F0AE80E2
:1048A00005460E461746B0F84C309BB213B90024AB
:1048B000A14616E0DFF854A1504603B0BDE8F08FE2
:1048C0008DF807404FF0000A25E0B7FA87F35B093F
:1048D000062201213046FFF75DFB824616E00134D7
:1048E000E4B2032C15D82A19917AB1420CBF4FF0CB
:1048F00001094FF00009E3D0EA7F002AEFD1FF2938
:10490000EDD1B8F1000FE0D14FF0000A8DF807406B
:1049100001E0DFF8F8A0B9F1000F01D1EB7F53BB44
:10492000BAF1000FC8D1B9F1000F03D19DF80730DB
:104930002B449E729DF80720012F14BF00270127EA
:10494000AB189F732968012393401B0203F4706323
:10495000032A00D901BE002F4CD10A6A22EA0303C0
:104960000B62EB7F002BA7D100229DF80710284691
:10497000FFF76EFEA0E7002300932C1D23460DF1E8
:10498000070269463046FFF73DFE83460028C7D13F
:10499000287AFF2819D0234611221A49FFF75EFD15
:1049A000009A002ABCD09DF807302B449B7AFF2B3D
:1049B000B6D10378117899420ED00023002BAFD0E6
:1049C000B8F1000F10D1DA46ADE7234611220E49A7
:1049D000E879FFF743FDE3E741785378994201D046
:1049E0000023EBE70123E9E70821104601F0BDFAB7
:1049F000824695E70A6A13430B62B2E7DFF80CA020
:104A00005AE700BF64D6001020D60010081902042F
:104A100038B5044603686BB1002211464079FFF7B0
:104A200097FD0021206802F0E5FA206802F0C2FA42
:104A30000023236023791E2B06D194F86C3003B336
:104A400094F82030ABBB38BD62791E4B33F912307D
:104A5000002B0CDB03F01F015B0901228A4020338D
:104A6000194941F82320BFF34F8FBFF36F8F94F89C
:104A70006C3013B11E232371DFE7201DFFF7D4FB39
:104A8000F8E7E01D01F066FA04F1080001F062FAAF
:104A900004F1090001F05EFA002507E005F10800C5
:104AA0002044023001F056FA0135EDB2032DF5D95C
:104AB000C6E704F11400FFF72BFA002384F8203036
:104AC000C1E700BF10DA001000E100E000284DD07F
:104AD000F0B58FB00D46044690F8203013B9244845
:104AE0000FB0F0BD064656F8240B314602F082FAAC
:104AF0000DF1370229462046FFF748FE38B9E37F1B
:104B00002BB994F821209DF837309A4207D100281C
:104B1000E6D12268136843F000431360E0E76D4676
:104B2000144F0FCF0FC50FCF0FC50FCF0FC53B6869
:104B30002B60206802F03EFAE37F83F001038DF8DA
:104B4000003094F822308DF81030237F8DF8023039
:104B5000A37F029303939DF83730019384F82130AB
:104B600032466946206802F001F9D0E702487047F2
:104B7000011902042CDA001000190204024688B15F
:104B800013688BB1FF2924D0B2F84C309BB26BB9BB
:104B90000023032B1BD8D018807A884208D0013319
:104BA000DBB2F6E701BEEBE701BEEBE70A48704770
:104BB00010B41468216A21F04061980600F040604A
:104BC00001432162937400205DF8044B7047024852
:104BD00070470148704700BF091902042DE9F04FE2
:104BE00097B00D460446002840D0002D40D06B6899
:104BF000002B3FD070220021204605F01DF82B68C5
:104C0000B3F1000C18BF4FF0010C84F86CC009AE72
:104C10006F680FCF0FC60FCF0FC60FCF0FC63B6801
:104C20003360BCF1000F14D09DF82530002B40F00C
:104C30005982002940F05B82149B002B40F059827E
:104C4000159B002B40F057820B9A0C9B9A4240F028
:104C5000548204238DF823300023A4F84C301E2204
:104C60002271FF22E271227262720CE001BEBCE787
:104C700001BEBCE701BEBDE7E218FF219172002131
:104C800091730133DBB2032BF6D9FF2384F84E3046
:104C90000026A6749DF824A0BAFA8AF252092B7B4A
:104CA000009395F8119095F812B0032E07D8AB1920
:104CB00093F80D80B8F1FF0F04D10136F5E7002617
:104CC0004FF0FF08BAF1000F0FD1009BFF2B00F04F
:104CD0001682B8F1FF0F00F01482B9F1FF0F0FD167
:104CE000BBF1FF0F0CD1A54FFDE1BBF1FF0F03D0CE
:104CF000009BFF2B00F00782B9F1FF0F00F0FF804F
:104D0000E277002307938DF81B30BAF1000F40F0D3
:104D1000FC802B6811229A494846FFF79FFB0190BF
:104D20002B68112297495846FFF798FB02902B6891
:104D3000102295490098FFF791FB03902B680DF125
:104D40001B0207A94046FFF75DFC074606230593B3
:104D500008230493B9F1FF0F00F0F280019B002BB0
:104D600000F0D381B9F1FF0F0CD00199002900F0B8
:104D7000CE811A780978914200F0E4800022002A5E
:104D800000F0C781BBF1FF0F0CD0029A002A00F09F
:104D9000C28119781278914200F0DD800022002A49
:104DA00000F0BB81009AFF2A0CD0039A002A00F081
:104DB000B68119781278914200F0D6800022002A3C
:104DC00000F0AF81BAF1000F0FD1B8F1FF0F0CD096
:104DD000079A002A00F0A78118781178884200F01D
:104DE000E3800022002A00F0A08117228DF818200D
:104DF0001A788DF819205B788DF81A3094F86C3099
:104E0000002B00F0D980D5F800A017B9002B00F0D6
:104E1000D68057B9BAF800209AF80230A280A37160
:104E200062795A4B53F82230236057B9B9F1FF0F1A
:104E300007D094F86C30002B00F0C6800FB984F8CE
:104E4000089057B9BBF1FF0F07D094F86C30002BD6
:104E500000F0C0800FB984F807B057B9009BFF2B52
:104E600007D094F86C30002B00F0BA800FB9009B8B
:104E700063721FB9B8F1FF0F40F0B88097B9AA6804
:104E8000002A00F0C28004F1140392E8030083E8D2
:104E90000300002384F82030237D023BDBB2012B8A
:104EA00040F2D780002F00F0BC80002F00F0D380AC
:104EB0001FB9B8F1FF0F40F0F480002F40F00E81D1
:104EC00000236366A366A3646379314D314A0321ED
:104ED00035F91300FFF71AFA637935F91330002B0F
:104EE00007DB03F01F015B0901228A402A4941F8D0
:104EF00023202268136843F000431360F3E0BBF102
:104F0000FF0F7FF4FDAE1D4FEDE02B68112223490A
:104F10004846FFF7A3FA01902B6811222049584612
:104F2000FFF79CFA02902B6810221E490098FFF7A9
:104F300095FA03900823059306230493002709E7B5
:104F4000029B0CE75A7801994978914201D00022DE
:104F500015E7012213E75978029A5278914201D05D
:104F600000221CE701221AE75978039A52789142ED
:104F700001D0002223E7012221E700BF0519020426
:104F800064D6001020D60010E0D50010DCD9001047
:104F900010DA00109146001000E100E09CD50010EE
:104FA00058D5001018D5001059785278914201D088
:104FB000002217E7012215E70DF1180A25E75046F0
:104FC000FFF7EEF8074624E70499019800F0CDFFBB
:104FD000074633E70599029800F0C7FF074639E70F
:104FE0000499039800F0C1FF07463FE76B689A6990
:104FF000F24094F86C3083F0010302F00102414664
:105000002046FFF743FC074638E701231A46211DD7
:1050100004F1140001F03CF80746012384F8203025
:1050200040E7217D627D01F00301607902F004FE1A
:10503000074600287FF439AF94F82030002B3FF466
:1050400034AF0DF123023A492046FFF79FFB074694
:105050002BE7384F29E7384A21466079FFF778FA7D
:1050600094F86C302BB994F8203013B19DF82330AC
:105070000A930A9B84F821300C9BA3779DF8343067
:1050800084F822309DF82630237709A8FFF79CFA90
:105090006077224652F8240B09A901F067FE074603
:1050A00006E741462046FFF769FDA8B90136032E01
:1050B00010D8AB19597BFF29F7D06B689A69F24079
:1050C00094F86C3083F0010302F001022046FFF7F0
:1050D000DDFBEAE70746F0E60746EEE62046FFF787
:1050E00097FC00E0154F384617B0BDE8F08F134F1E
:1050F000F9E7124FF7E7114FF5E7104FF3E7104FBD
:10510000F1E70F4FEFE70E4FEDE70E4FEBE70D4FD7
:10511000E9E70C4FE7E70B4FE5E70A4FE3E7094FF5
:10512000E1E7084FDFE7074FDDE7064FDBE700BFAA
:10513000A0860100031902044D4700100A19020459
:1051400005190204071902042DE9F04393B00E4635
:1051500015461F469DF870909DF874E08046002823
:1051600041D00DF1140C214C0FCCACE80F000FCC4A
:10517000ACE80F000FCCACE80F002368CCF800308F
:105180009DF8783083F001038DF814308EF0010320
:1051900003F001038DF824307046FFF705FA8DF80F
:1051A0001600CDF81C90CDF820900023009305AB9D
:1051B00001931B9B02938DF80C709DF868308DF85D
:1051C0000D30FF238DF80E308DF80F308DF8103034
:1051D0008DF811608DF8125069464046FFF7FEFCCD
:1051E00013B0BDE8F08301BEBBE700BF2CDA0010AE
:1051F00000285FD038B50D460446FFF7A3F9002814
:105200005AD1E37F13B1227AFF2A57D013B9E2793A
:10521000FF2A55D013B14FF0FF3345E00122A17CA6
:105220002046FFF715FA2368D3F8042242F48032AF
:10523000C3F80422D3F8042222F48032C3F80422F3
:10524000D3F804322368D3F8042342F48032C3F83D
:105250000423D3F8042322F48032C3F80423D3F8C0
:105260000433002004E04FF0FF31206801F08DFC92
:105270000028F8D02368D3F80822C2F30802D3F834
:105280000812C1F3C031CA42F4D1D3F80823C2F3E3
:105290000802002AF9D00022A17C2046FFF7D8F9A5
:1052A000B9E72368D3F84033B3F1FF3FF9D02B605F
:1052B000002038BD034870470348FAE70348F8E781
:1052C0000248F6E700190204031A02040619020450
:1052D00038B5002858D00C460546FFF733F90028AA
:1052E00054D1EB7F13B1EA79FF2A51D013B92A7A4E
:1052F000FF2A4FD00BB1002027E00122A97C2846CD
:10530000FFF7A6F92B68D3F8042242F48032C3F8E1
:105310000422D3F8042222F48032C3F80422D3F802
:1053200004322B68D3F8042342F48032C3F80423F8
:10533000D3F8042322F48032C3F80423D3F80433CF
:10534000D9E72146286801F020FC0028F9D0EB7F3E
:1053500013BB2A68D2F80832C3F30803D2F8084214
:10536000C4F3C0341C19F4D1D2F80833C3F30803D2
:10537000002BF9D00022A97C2846FFF769F92B6899
:10538000D3F84033204638BD044CFBE7044CF9E722
:10539000044CF7E7034CF5E70024F3E70019020497
:1053A000031A0204061902042DE9F0410446884656
:1053B00016461F4604E0012288F80020E2B1E468A6
:1053C00040F28975AC4217D02568002DF7D094F8CB
:1053D00004C036EA0C03F2D1637937EA0303EED056
:1053E000A26839463046A8470028E4D1012F01D0F1
:1053F0000122E1E70022DFE72046BDE8F08170B539
:1054000004460D46164600E0E468AC420FD023681F
:10541000002BF9D0217936EA0102F5D1627912F038
:10542000020FF1D1A268022130469847ECE770BD27
:1054300038B505460C46FDF7ECFAE36813B1FDF705
:10544000ECFA38BD2B68E3602C60F8E738B5044609
:105450000D46FDF7DEFA01E003F10C04236840F28B
:105460008972934205D0AB42F6D1EB6823600023EA
:10547000EB60FDF7D2FA38BD2DE9F04182B00D4660
:1054800000F0DBFD044601238DF80730022808D028
:10549000082806D0102804D01A4B1E681A4B1F6823
:1054A00003E0184B1F68184B1E6823462A460DF16F
:1054B00007013846FFF778FF80469DF8073063B94B
:1054C00030469DF807300BB9012C0ED09DF80730FF
:1054D000B3B1002002B0BDE8F08123462A460DF1A9
:1054E00007013046FFF760FFEBE72A4601463046EA
:1054F000FFF785FF2A4641463846FFF780FFE5E77C
:105500000248E7E74C23000848230008FF00420058
:1055100038B50C4610212046FFF7AEFF0546042C97
:1055200001D0284638BD002003F0AAFA0349A1FBA8
:105530000031890C012003F0C1FBF2E783DE1B433D
:1055400038B50C4608212046FFF796FF0546082C83
:1055500001D0284638BD002003F092FA0349A1FB90
:105560000031890C002003F0A9FBF2E783DE1B4326
:1055700008B508460421FFF77FFF08BD10B50446B3
:10558000FFF77AFF042C02D0082C17D010BD4FF083
:10559000E0231B6913F0010F04D00E4B1B7813B1ED
:1055A000012300E000230C4A1370002BEED04FF0D3
:1055B000E022136923F001031361E7E7064B1B7830
:1055C000002BE3D04FF0E022136943F00103136195
:1055D000DCE700BFFE2C0008982D000808B508463F
:1055E000012902D1044B1B881BB90221FFF7C6FF1A
:1055F00008BD0248FCE700BFFC2C0008FF00420089
:1056000008B508460121FFF7B9FF08BD38B5844643
:105610008E4615460C4C0FCCCCF80000CCF804108C
:10562000CCF80820CCF80C3007CCCCF81000CCF823
:105630001410CCF81820CCF800508CF804E0604628
:1056400003F0BEFC38BD00BF80DA001008B501468B
:1056500018B10348FFF7ECFE08BD01BEF9E700BF33
:105660004C23000808B5014618B10348FFF7EEFEC9
:1056700008BD01BEF9E700BF4C23000808B503F0E0
:1056800095FE38B9164A00211648FFF7BFFF20B92A
:10569000154808BD03F0DEFCF4E7144A0121144864
:1056A000FFF7B4FF08B91048F3E7124A0221124885
:1056B000FFF7ACFF08B90C48EBE7104A032110488C
:1056C000FFF7A4FF08B90848E3E70E4A04210E4893
:1056D000FFF79CFF08B10020DBE70348D9E700BFD4
:1056E00001560010782D0008011A0204DD55001043
:1056F000082D000871550010242D00084155001098
:105700005C2D000811550010402D0008024600B124
:1057100001BE024B43F82210704700BF942D0008D1
:1057200008B503F027FA002008BD012803D002289D
:1057300003D10320704702207047002070470138D2
:10574000032809D8DFE800F0020B040602207047A6
:10575000062070470820704701BE022070470420D1
:105760007047814206D9091A642303FB01F1B1FB9A
:10577000F0F07047411A642303FB01F1B1FBF0F034
:10578000704700002DE9F04F87B004460D461746DC
:1057900098469DF840901E23037100234373FF2316
:1057A000C371037243728372994218D0FF2F1AD0CB
:1057B000FF2D02D1FF2F00F0DF80FDF72AF982468E
:1057C000FF2D15D14FF0FF36FF2F18D1B8F1FF0F85
:1057D0001CD1B9F1FF0F20D136B300232BE099453E
:1057E000E4D0664E9CE0B8F1FF0FE1D0634E97E045
:1057F000132263492846FEF773FE0646E4E71322A8
:1058000060493846FEF76CFE0640DFE712225E492B
:105810004046FEF765FE0640DBE712225B4948463C
:10582000FEF75EFE0640D7E75046FDF7F6F8534E0A
:1058300076E00133DBB226FA03F212F0010FF8D062
:1058400017228DF814208DF8153000238DF81630AE
:1058500005AB13224A492846FEF700FE834605ABF6
:10586000132248493846FEF7F9FD029005AB122293
:1058700045494046FEF7F2FD019005AB122243492F
:105880004846FEF7EBFD0390FF2D02D0BBF1000F61
:105890000DD0FF2F01D0029B4BB1B8F1FF0F01D00B
:1058A000019B23B1B9F1FF0F02D0039B03B901BEE5
:1058B00005A8FEF775FC06465046FDF7AEF87EBB20
:1058C000059BA3801B0CA371FF2D2DD10EB9FF2FBB
:1058D00033D15EB9019B4BB10821184600F045FB5E
:1058E000064618B90123E37284F809805EB9039B68
:1058F0004BB10621184600F038FB064618B90123C3
:10590000237384F80A9056B9119BFBB1002363738B
:1059100004F11003119A92E8030083E8030016B320
:10592000304607B0BDE8F08F0621584600F01DFB59
:1059300006460028CAD12572C8E70821029800F05F
:1059400014FB06460028C4D1E771C2E701231A46BA
:10595000211D04F1100000F09BFB0646B0FA80F315
:105960005B096373DBE7217C627C01F003016079F2
:1059700002F062F90646D3E7004ED1E7001F0204A9
:1059800054D8001008D8001078D70010C0D70010E5
:105990002DE9F8430446037AFF2B0CD0D908772B66
:1059A00005D84C480068866906EBC11604E04949F1
:1059B00009688E6900E00026A17AFF290ED0207BBD
:1059C000D0B1C808772905D8424D2D68AF6907EBDB
:1059D000C01704E03F480068876900E0002703F033
:1059E000070501F00708013A072A65D8DFE802F049
:1059F000064F64686464644F0027F0E7A14659F8D5
:105A0000180B494601F0DCFF10F0010F01D0002017
:105A100054E04946206801F0D1FF10F0010F51D148
:105A20002168D1F80832C3F30803D1F80822C2F381
:105A3000C032D34248D1D1F80833C3F30803002B56
:105A400044D176B12946304600F0A4FC84F8980091
:105A50002946304600F0CCFC00222946304600F0B2
:105A600027FC77B14146384600F094FC84F8990051
:105A70004146384600F0BCFC00224146384600F062
:105A800017FC4946206801F0F5FE012016E0226867
:105A9000136843F0004313602EB194F89820294610
:105AA000304600F005FC9FB194F8992041463846F5
:105AB00000F0FEFB012001E001BE0020BDE8F883FC
:105AC0000120FBE70020F9E70020F7E70020F5E7D9
:105AD0000120F3E7A02D0008F8B5314D2E68FEF740
:105AE000A9FC2860002859D00446014651F8180B3B
:105AF000D0F88C5FD0F8CC7F01F064FF15F0200F58
:105B000009D023682022C3F8802FD3F8803FE36CAC
:105B10000BB11046984715F0400F09D0236840227A
:105B2000C3F8802FD3F8803FE36C0BB12020984757
:105B300015F0010F04D0E36C13B14FF48070984757
:105B400015F4007F13D023684FF40072C3F8802F40
:105B5000D3F8803F2268D2F8883F43F4007123F4E1
:105B6000EE6323F0030303B101BEC2F8881F17F0F0
:105B7000400F09D023684022C3F8C02FD3F8C03F9C
:105B8000E36C0BB11020984717F0010F04D0E36CC1
:105B900013B14FF400709847014B1E60F8BD00BF71
:105BA0009C2D000838B50C46154602F079FF05FB20
:105BB00004F4B0FBF4F038BD2DE9F84380460E46FE
:105BC0000824FF27A14601E00134E4B2102C15D8C7
:105BD00006FB04F502F064FF00EB55012246B1FB21
:105BE000F5F14046FFF7DEFF01463046FFF7B9FD0D
:105BF000C0B28742E8D90746A146E5E74846BDE876
:105C0000F883000070B5044642791A4B53F822001D
:105C1000214641F8540B04F1180201F07BFC0546C3
:105C200008B1284670BD0023C4F89C30C4F8A030E9
:105C3000C4F894306379104E104A032136F91300EA
:105C4000FEF764FB637936F91330002B07DB03F0B2
:105C50001F015B0901228A40094941F82320094AB2
:105C600021466079FEF774FC2268136843F0004314
:105C70001360D6E7DCD9001010DA0010D95A0010F2
:105C800000E100E09159001010B5044688B1206889
:105C900040B104F1180101F0EDFD206801F0C6FDEE
:105CA0000023236023791E2B05D194F8A43023B35D
:105CB00010BD01BEEBE762791B4B33F91230002BAC
:105CC0000CDB03F01F015B0901228A4020331749D6
:105CD00041F82320BFF34F8FBFF36F8F002211468F
:105CE0006079FEF735FC94F8A43013B11E232371BC
:105CF000DBE7201DFEF798FAF8E7E01D00F02AF92F
:105D000004F1080000F026F904F10A0000F022F97D
:105D100004F1090000F01EF9637B002BC8D004F1E8
:105D20001000FEF7F5F8C3E710DA001000E100E01C
:105D3000437B0BB9334870472DE9F04704460E46C4
:105D400090460546002155F8100B01F093FD002206
:105D500011462846FEF7AEF830B12268136843F0CA
:105D600000431360BDE8F08704F10409314648465A
:105D7000FFF722FF0746A06500FB06F602F090FE43
:105D800000EB5600B0FBF6F631462846FEF7A9F8C0
:105D9000824640BB3A4631464846FFF703FFB8F11A
:105DA000000F01D0C8F80000002201212846FEF7AC
:105DB00081F894F8703013B34FF48033E26D082A01
:105DC00001D84FF4006A43EA0A03013F07F00F07C6
:105DD0001F43236847F000771F602268136843F071
:105DE00000431360BEE7002201212846FEF762F857
:105DF0002268136843F0004313605046B2E75346ED
:105E0000DCE700BF061F0204F8B506460F4615463C
:105E1000FEF798FBA8B93368D3F840332C4602E06C
:105E20003368D3F84033B3F1FF3F07D1002DF7D0EB
:105E30004CB1012002F09EFE013CF1E73B700020D6
:105E4000F8BD0248FCE70248FAE700BF031A020463
:105E5000021F020438B504460D46FEF773FB28B155
:105E6000044806E02946206800F08FFE0028F9D09B
:105E7000002038BD031A020408B5034630B139B119
:105E800053F8180B01F002FD002008BD01BEF6E733
:105E900001BEF5E72DE9F04182B00C461646984662
:105EA0000A9F0546002844D0A8220021284603F076
:105EB000C3FE099B01939DF8203000934346324670
:105EC00021462846FFF75EFC044618BB05F1540C3A
:105ED0001F4C0FCCACE80F000FCCACE80F000FCC80
:105EE000ACE80F0094E80F008CE80F00EB7A85F81F
:105EF00074305FB13B68EB653879FFF720FC85F8BB
:105F00006100387AFFF711FC85F862002846FFF738
:105F100079FE044644B92FB1F96819B13A692846A7
:105F2000FFF7AAFF6B7B33B96CB9204602B0BDE81E
:105F3000F08101BEB8E700224FF4E1312846FFF7B7
:105F4000F7FE0446F0E72846FFF79EFEEDE700BFA8
:105F50009CDA001010B504460078FF2800D110BD6F
:105F600000F037F8FF232370F9E770B584B00446DA
:105F70000D4683780B228DF80020DA088DF8012079
:105F800003F007038DF80230009BADF80C301B0CBA
:105F90008DF80E30039BADF808301B0C8DF80A30DD
:105FA000029BADF804301B0C8DF8063001A8FEF7FB
:105FB000F7F8064610B1304604B070BD29462046B9
:105FC000FEF758F906460028F5D001A8FEF72CF98F
:105FD000F1E710B584B00446FEF77CF900B101BECC
:105FE0000B238DF80030E3088DF8013004F007042E
:105FF0008DF80240009BADF80C301B0C8DF80E3074
:10600000039BADF808301B0C8DF80A30029BADF8ED
:1060100004301B0C8DF8063001A8FEF705F904B01A
:1060200010BD431E072B05D8DFE803F00606040663
:106030000404040601BE01207047431E072B05D847
:10604000DFE803F0060604060404040601BE01208E
:106050007047122817D8DFE800F00A180C0E161641
:1060600016161616161616121610161614000820F6
:1060700070470420704701207047022070470620B7
:1060800070470620704701207047102070470000BD
:106090002DE9F04383B0044616461F460B4691B1E6
:1060A00019780539182943D8DFE801F03A4242420D
:1060B0004242420F424242424242420F1C42422A64
:1060C00042424242230001BEEAE7274B93E8030025
:1060D00002AB03E9030069462046FDF7CBFE03B09F
:1060E000BDE8F083214B93E8030002AB03E9030012
:1060F000F1E71F4B93E8030002AB03E90300EAE773
:106100005B7833B91B4B93E8030002AB03E9030050
:10611000E1E7164B93E8030002AB03E90300DAE77B
:1061200001BE1548DBE74FF001090EE001BE0EE0AD
:106130000025A9461148032DD1D8114B13F805802D
:106140004645F0D0B9F1000F0CD0002CEED0FDF791
:1061500061FE024641462046FDF760FE0028BED0A3
:10616000002FBCD00135E6E7A8D80010B0D8001049
:10617000B8D80010C0D8001002020204020E0204B7
:10618000DCDA0010014B1860704700BFA02D00083A
:10619000B0F1204F3CD018D880283BD007D9B0F5BB
:1061A000807F3FD0244B984209D024487047102864
:1061B00032D0402801D12248704700282ED17047A4
:1061C0004FF4A40070471D4870471E4B98422BD0D7
:1061D0002DD31D4B98422CD8B0F1704F12D900F13D
:1061E000805001380428EED801A353F820F000BFF6
:1061F000C1610010C7610010216200100962001027
:106200000D6200100D4870471048704710487047E5
:10621000002070470F4870470F4870470748704785
:106220000E487047044870474FF4A0007047034879
:1062300070470248C3E700BF06005200FF0052004B
:1062400002005000090000A0050000F0020052000A
:1062500003005200050052000100500001005200EE
:1062600010B5104B1B6893F83330012B00D801BEDA
:106270000C4B1C68236AB4F8BA201344D4F8BC2031
:10628000D358002B0BDB084B1868FFF781FF6368BE
:1062900001229A6063689B68002BFBD110BD034804
:1062A000FCE700BFA02D0008A42D0008020050004C
:1062B00010B5072900D901BE32F01F0300D001BE7E
:1062C000164B1B689C69001BC0095B694FEA001CE8
:1062D00003EB0010032910D853F80C00C9004FF04D
:1062E0001F0E0EFA01FE20EA0E0002F01F0202FA53
:1062F00001F1014343F80C1010BD04394368C90093
:106300004FF01F0C0CFA01FC23EA0C0302F01F02F1
:1063100002FA01F119434160EEE700BFA02D000829
:10632000F8B507460D4614461E469DF81820072965
:1063300000D901BE34F00F0303D1012C01D0092C88
:1063400000D101BE012E00D901BE32F01F0300D0E2
:1063500001BE29463846FFF7ABFF3B680122AA4041
:1063600023EA020306F00106AE401E433E60084BDE
:106370001B6893F88110CB59AD000F22AA4023EA85
:10638000020304F00F04AC401C43CC51F8BD00BF25
:10639000A02D0008072900D901BE0D4B1B689A6982
:1063A000801AC0095B69020103EB0010032906D8BB
:1063B0009858C90020FA01F101F01F007047043914
:1063C0004068C90020FA01F101F01F00704700BFCA
:1063D000A02D0008072900D901BE012A00D901BE5D
:1063E000012303FA01F10AB94160704781607047E7
:1063F000072900D901BE012303FA01F1816070472A
:1064000000B5072900D901BE32F00F0303D1012ADC
:1064100001D0092A00D101BE89000A4B1B6893F8FC
:1064200081E05EF800304FF00F0C0CFA01FC23EA1B
:106430000C0302F00F028A401A434EF800205DF868
:1064400004FB00BFA02D000800B5072900D901BE3C
:10645000012A00D901BE0A4B1B6893F882E05EF85E
:1064600000304FF0010C0CFA01FC23EA0C0302F09F
:1064700001028A401A434EF800205DF804FB00BF79
:10648000A02D0008082900D901BE012A00D901BEAB
:1064900083694FF0010C0CFA01FC23EA0C0302F0B3
:1064A00001028A401A4382617047000000B5082942
:1064B00000D901BE032A00D901BE4900094B1B685F
:1064C00093F880E05EF800304FF0030C0CFA01FC0A
:1064D00023EA0C0302F003028A401A434EF800201C
:1064E0005DF804FBA02D0008002800F0A280F8B59C
