:020000041000EA
:1000000000200008EB0000100D0000004D01001062
:1000100000000000000000000000000000000000E0
:100020000000000000000000000000004901001076
:10003000000000000000000049010010490100100C
:100040004901001049010010490100104901001048
:100050004901001049010010490100104901001038
:100060004901001049010010490100104901001028
:100070004901001049010010490100104901001018
:1000800010B5064C2378002B07D1054B002B02D06E
:10009000044800E000BF0123237010BDB003000836
:1000A0000000000014150010044B10B5002B03D005
:1000B0000349044800E000BF10BDC0460000000036
:1000C000B4030008141500100230800803D001307A
:1000D0000238FCD1C046C0467047EFF3108072B6BC
:1000E000704780F3108870477047FFF7FDFF72B6C6
:1000F0000F4C104DAC4209DA21686268A368043BDA
:1001000002DBC858D050FAE70C34F3E70A490B4A2F
:100110000020521A02DD043A8850FCDC08480949E4
:100120000860BFF34F8F00F0EDFE00F09BFEFEE78E
:100130002015001038150010B0030008C80500088D
:100140000000000808ED00E0FEE7FEE700B504202F
:100150007146084202D0EFF3098002E0EFF3088015
:10016000043000F091FCFEE7014B18607047C04678
:10017000CC030008044B1B681A00BA3212881B6AB1
:100180005043C0187047C046CC030008A02300B5F8
:100190001B06984226D015D8802825D00AD81028CA
:1001A00024D0402824D000280BD0154809E0A420F2
:1001B000C00306E08022134B520090421CD09842AC
:1001C000F3D100BD104B984218D0104BC018042832
:1001D000EBD800F035FFECEA0F0305000C48F0E720
:1001E0000C48EEE70020ECE70B48EAE70B48E8E7AD
:1001F0000B48E6E70B48E4E71800E2E7A020D7E762
:10020000FF00520006005200090000A0FFFFFF0F90
:10021000020052000300520005005200010050008D
:10022000020050000100520010B50020FFF7A2FFAD
:100230000A4B1C682300BC331B68C0180368002BE2
:100240000ADB074B1868FFF7A1FF012263689A6079
:100250009A68002AFCD110BD0248FCE7CC030008D4
:10026000D003000802005000064B1B68BC331B681B
:10027000C3181B68002B03DA89B241600020704765
:100280000148FCE7CC03000801008A000368002B4A
:1002900004DA89B2C2608160002070470048FCE740
:1002A00001008A00064B1B68BC331B68C3181B681F
:1002B000002B03DAC36800200B6070470148FCE79D
:1002C000CC03000801008A00024B1A68002A00D102
:1002D00018607047E4030008F0B52C244443154827
:1002E0001F0000681E0A0019FF2426402740124CF8
:1002F0001B0C256807602C6A46608360BA352D8820
:100300006F433F190761370080377F01E7190B4DB5
:1003100076014761A4191F043B436419236000233D
:100320008361059BC2610162002B01D01B88838120
:10033000F0BDC046E4030008CC030008081000002C
:10034000F0B5836885B002AD2B800368066A173369
:100350006B804368476A0095826AC16A0400039310
:100360000369C068FFF7B8FF00213B000A003000B6
:100370000091FFF7B1FF2800216B00F039FB00224C
:10038000AB5E002B06DB1F2213401E3A9A4013007F
:10039000014A136005B0F0BD00E100E0F7B52C267E
:1003A000134C70434E43246801932518A4192E69F9
:1003B000002E19D0A069002818D13168002915DA5B
:1003C00001216F680D0063689D40AC4613689DB2C3
:1003D00063461B041D431560F260A161B940019B97
:1003E00089B26362B160FEBD0248FCE70248FAE7E9
:1003F000E403000804028A0007028A0073B500269D
:1004000042690400D56801962B0CB34221D01B042D
:1004100013601368194B00691B68BC331B68C31851
:100420001B68B34215DA01A9FFF73CFFB0420CD1BB
:100430000198E26903681E0CDBB29A4205D9226A70
:100440009B009B58002B00D0984731002069FFF794
:100450000BFFADB2002D09D063691D6000251B683C
:10046000636AAB4205D098476562A56163691B6802
:1004700073BDA36A002BF8D09847F6E7CC030008B9
:100480002C2310B54343034A1068C018FFF7B6FF8A
:1004900010BDC046E40300081A4B70B51A680C0082
:1004A000130033331B7883422AD9002928D00D68E2
:1004B0001F212B000B400D4222D11100BA310988B7
:1004C000126A48431900104D8018286022685209AA
:1004D000934210D30021FFF7C7FE002122002868B5
:1004E000FFF7D4FE011E04D12868FFF7BDFE0028E7
:1004F00000D0064870BD66689A0091510133E5E767
:100500000348F7E7CC030008E803000801018A006C
:1005100003018A0010B504000800002A0CD100294C
:1005200013D10B4B1A681300BA331B88126A63434A
:100530009B18084A136010BD002906D006490860C0
:1005400020004A60FFF7A8FFF5E70448F3E7C0463C
:10055000CC030008E80300087803000803018A00C0
:10056000F7B5184F04003B680191DE683368834299
:1005700026D90025A94202D1FFF7AFFD0500386852
:100580000368002B1ADA1F220123224093406409DA
:100590007268A4001419226813420DD09A43226095
:1005A00000240021FFF760FE019B002B02D12800F0
:1005B000FFF797FD2000FEBD034CF2E7034CF3E785
:1005C000034CF7E7E80300080201880003018800F4
:1005D00004018A000A4B1B68DB681A6882420DD945
:1005E00059681F23420918401E3B8340920050580F
:1005F0001840431E9841034BC01870470248FCE75F
:10060000E80300080001880004018A00054B1B680C
:100610001A0088321B6812689B181868000AC0B25A
:100620007047C046CC030008044B1B681A00883290
:100630001B6812689B181868000E7047CC030008EE
:10064000034BE0308000C0588006800F7047C046E2
:1006500000002640024B18694007C00F7047C04693
:1006600000002740A6220549D2008B580220DB4318
:100670009B0702D00123885818407047000026408D
:1006800010B5FFF7EFFF0023022801D1014B1B68D3
:10069000180010BDF0030008094A83009B18D022FF
:1006A0009200985807221040042807D1C0229200D7
:1006B00098581F2303408020400018437047C046CD
:1006C0000000264010B5FFF7E7FF88235B00984243
:1006D0001AD009D8012811D0022812D0434258411B
:1006E000114B4042184010BD1223FF33984213D0E3
:1006F0001423FF33984214D00020F4E70B4B186802
:10070000F1E7FFF7BDFFEEE7094A0A4BD358002B8C
:10071000F2DA80200002E6E7FFF79CFF0028EBD02A
:10072000F7E7034A044BF1E700127A00EC030008F4
:10073000000026400C0500003C050000B023154ACF
:10074000DB00D35810B59903DB01DB0F890BC371B4
:10075000114B0160D3580F24D904DB01DB0D038159
:10076000B123DB00D358C90C81801900214081726C
:1007700019092140C172D9029B009B0F8373074B5B
:10078000C90CD35881815A05DB01520FDB0D8271F0
:10079000038210BD00002640840500008C05000087
:1007A0008030034BFF308000C058C00F7047C046F8
:1007B0000000264010B5104B421E1B683F331B78CB
:1007C000934216D97F221F2480300C4BFF308000CB
:1007D000C3581A400A701A0C2240180A8A701A016B
:1007E0002040E240487000209B009B0FCA700B71B4
:1007F00010BD0348FCE7C046CC03000800002640BB
:1008000001004A00F0B589B003AC2000FFF796FF65
:10081000B0231A4ADB00D25800239A4203DAA37BA2
:10082000023B5A1E9341E57900266A1E9541013527
:10083000B34220D0A488B4421DD03000039FFFF7FC
:1008400041FF2A00330031000190200000F0AEFC8F
:100850000C00050033003A003100019800F0A6FCBE
:10086000E6076A0832436308801859412A002300CA
:1008700000F07CFC0600300009B0F0BD000026400E
:10088000F7B5234B06001B683F331B78002B08D0BD
:1008900000283BD0834204D36946FFF78BFF041E38
:1008A00001D0002632E03000FFF77AFF2300002855
:1008B00005D06B461C79023C23005A1E93416A46C0
:1008C0005478002BEDD0002CEBD09578002DE8D09B
:1008D00030001778FFF7F6FE002306002A002000FC
:1008E000190000F063FC00230C0005003A00300002
:1008F000190000F05BFCE6076A08324363088018C1
:1009000059412A00230000F031FC06003000FEBDF2
:10091000CC03000810B5041E04D1FFF773FF0028B4
:1009200006D008E0064B1B683F331B78834203D296
:100930002000FFF7C7FE10BDFFF7A2FFEFE7C0469C
:10094000CC03000870B50500FFF77AFEE035074BD1
:10095000AD000400E8580F231840FFF7DBFF012328
:10096000A3405B081818E04070BDC0460000264058
:10097000144B30B51C6823002C331A7807231F2A28
:1009800015D8820815009D432B1E0FD10333184044
:10099000984081402368920020339B180A00FF2171
:1009A00081401C68624011406140196030BD1840B0
:1009B00080231B06184380239B012268C9188900E5
:1009C0008850F3E7CC030008064B10B59A68064C34
:1009D00010308300A24202D19858995010BD034AAA
:1009E000D058FBE700ED00E0000000080000001018
:1009F000F8B506000D0000283AD00023C05E00289C
:100A000028DB7188FFF7B4FF0024FF2203279446F8
:100A10000023F05E71680740FF006646BA40890116
:100A20003140D243B94083B2002815DB114E830810
:100A30009B009B19C026B6009F593A40114399511B
:100A40000D4B9A680D4B9A4202D12900FFF7BCFF6B
:100A50002000F8BD0A4CD8E70F263340083B064E6D
:100A60009B089B009B19DE6932401143D961E7E77F
:100A7000034CEDE700E100E000ED00E000000008BD
:100A800001005600FEE7000002680A4B10B51A602C
:100A900042685A6082689A60C268DA6002691A61C4
:100AA00042695A6182699A61C269DA61FFF7EAFFB5
:100AB00010BDC04690030008B0235B055A78212082
:100AC000002A01D05878C0B27047B0235B059A89DC
:100AD000002A02D0988980B2704780204000FBE74E
:100AE0007FB5274B86000D00F458042901D0012959
:100AF00027D100200FE0A3682B420BD1E368290027
:100B00001A685B6802920193039302A823689847CE
:100B10001C4B1C606469002C0BD01B4B9842EAD123
:100B2000012DE8D1174B18481A68184B9A5104B098
:100B300070BD012DFBD1144B9842F3D0134B9C5147
:100B4000F5E7022915D026006469002CFBD10020AE
:100B5000002EECD0B3682B4209D1F36829001A6843
:100B60005B6802920193039302A833689847366941
:100B7000EEE7044B1B68181ED9D01E69E7E7C04694
:100B80003404000830040008FF0042001C04000880
:100B90001A4B1B68190088311A68096851180968CE
:100BA000016219008C3109685218126842621A00F9
:100BB00046321278002A1FD09A68E0321268D206B4
:100BC0001AD5F222DB68D2019A580260F022D201D3
:100BD0009A5842600A4A9A5882600A4A9A58C260F1
:100BE000094A9A580261094A9A584261084A9A5831
:100BF0008261084A9B58C3617047C046CC03000815
:100C000004780000087800000C78000010780000DC
:100C100014780000187800001A4B1B681A008832FC
:100C2000196812688A18016A11601A008C321968F2
:100C300012688A18416A11601A0046321278002A36
:100C40001ED09A68E0321268D20619D5F0224168A7
:100C5000DB68D201995081680B4A9950C1680B4AF0
:100C6000995001690A4A995041690A4A9950816923
:100C7000094A9950C169094A99500168E832995066
:100C80007047C046CC0300080478000008780000D4
:100C90000C7800001078000014780000187800002C
:100CA000F7B50700FFF708FF5D4D06006B68002BE6
:100CB00000D07DE0FFF711FA6B680090002B00D0A8
:100CC00089E0584C22681300BA33198807234B4334
:100CD000126A9B181A68002AFCDADB68DA0021D550
:100CE0001B0F1B0750480193FFF752FF20684F4925
:100CF000030088331C6803681C1923680B40212EED
:100D000000D06DE0902212011343236003008C3366
:100D100000681B68C318186801400A431A60424BF8
:100D2000019A134380223F4E9205316813430A0013
:100D3000BA321088072200244243096A5218D3604D
:100D400054605368FFF7C1FE80235B0098424AD18C
:100D5000380000F05DFB32681300BA3319880723AE
:100D60004B43126A9B181A68002AFCDADF68FB0002
:100D700003D538010009FFF74FFF2D4B32681F40A4
:100D80001300BA33198807234B43126A00989B1843
:100D90000022DF605A60FFF7A4F9002C0FD16B68C6
:100DA000002B03D008210120FFF79AFE2000FEBD92
:100DB00001210800FFF794FE041E00D17AE76B685A
:100DC000002B03D002210120FFF78AFE194B9C4221
:100DD000ECD0194CEAE704210120FFF781FE70E70F
:100DE0008022520090E733681A00BC32196A1268F8
:100DF00052181168002910DBBA331B889A1813683F
:100E0000002B0ADB04230D4A11690B431361012FE8
:100E100001D030BF9FE720BF9DE7064C9BE7C0464F
:100E200034040008CC030008F4030008FF00FFFFAF
:100E3000FFFFFFDF05004200FF00420000ED00E081
:100E4000C0228020064952008B58C0059B009B0899
:100E500003438B50802388581B0603438B507047F5
:100E60000000264010B562B6034800F0C3F8002029
:100E7000FFF716FFFBE7C0460020001010B500206A
:100E8000FFF7FEFA10BD704710B50020FFF75AFDBE
:100E9000041E28D0144B1860FFF7C6FB411C20002D
:100EA00000F0D8F8114B04001860FFF7AFFB411CAD
:100EB000200000F0CFF804000D4B013C18600D49F4
:100EC000200000F0C7F8FA210B4B013018708900A0
:100ED000200000F0BFF8094B013018600020FFF738
:100EE00031FD074B186010BD880000088C00000819
:100EF0008000000840420F009400000890000008A5
:100F00008400000810B52048FFF72EF9B022E02138
:100F100030201E4CD200A35889005B005B08A35010
:100F200063588343635080235B04A350184B194AD2
:100F3000E250A02204339201E250FF22164BE2500D
:100F4000FFF77EFFC02201215200A3588B43A3501C
:100F5000FFF799FFFFF798FF104B03201A68130063
:100F6000BA33198807234B43126A80219B18002249
:100F7000DA605A600A4AFFF7CDFA0A48FFF7A4F987
:100F80000948FFF7DDF910BD2014001000002640CD
:100F900084050000010002008C050000CC0300085D
:100FA0008003000848040008E01400109023034A5E
:100FB0005B01D058032318407047C0460000204012
:100FC00010B59024FFF789F8074B64011A590749B7
:100FD0001140074A0A431A51102259681142FCD0A5
:100FE000FFF77FF810BDC04600002040FCFF000066
:100FF0000100FA05F8B590260E4C76010700FFF7C0
:101000006CF8A3590500DB439B0701D1FFF7D8FF1C
:1010100080239B00E750A359074A1A40074B13430C
:10102000A351102362681A42FCD02800FFF759F838
:10103000F8BDC04600002040FCFF00000300FA0598
:1010400002B4714649084900095649008E4402BC61
:101050007047C046002243088B4274D303098B4279
:101060005FD3030A8B4244D3030B8B4228D3030C78
:101070008B420DD3FF22090212BA030C8B4202D31A
:101080001212090265D0030B8B4219D300E0090A42
:10109000C30B8B4201D3CB03C01A5241830B8B424B
:1010A00001D38B03C01A5241430B8B4201D34B0334
:1010B000C01A5241030B8B4201D30B03C01A524199
:1010C000C30A8B4201D3CB02C01A5241830A8B421E
:1010D00001D38B02C01A5241430A8B4201D34B0207
:1010E000C01A5241030A8B4201D30B02C01A52416B
:1010F000CDD2C3098B4201D3CB01C01A524183091F
:101100008B4201D38B01C01A524143098B4201D358
:101110004B01C01A524103098B4201D30B01C01A83
:101120005241C3088B4201D3CB00C01A52418308FD
:101130008B4201D38B00C01A524143088B4201D32A
:101140004B00C01A5241411A00D20146524110468A
:101150007047FFE701B5002000F006F802BDC04669
:101160000029F7D076E770477047C046002B11D1B1
:10117000002A0FD1002900D1002802D00021C94344
:10118000080007B4024802A14018029003BDC046FF
:10119000D9FFFFFF03B4684601B5029800F034F8A8
:1011A000019B9E4602B00CBC7047C046F0B5CE46CF
:1011B000474680B5070099463B0C9C4613041B0C20
:1011C0001D000E0061460004140C000C45434B4307
:1011D00060436143C0182C0C20188C46834203D90D
:1011E00080235B029846C444494679437243030C0A
:1011F00063442D042D0CC918000440198918C0BC83
:10120000B946B046F0BDC046F0B557464E464546D5
:10121000DE46E0B504000D009246994683B08B424D
:1012200030D82DD04946504600F0D8F829000600A5
:10123000200000F0D3F8331A9846203B9B4633D465
:101240005A465346934042461F00534693401E0061
:10125000AF423AD8AF4200D178E05B46A41BBD4113
:10126000002B00DA75E00022002300920193012395
:101270005A4693400193012342469340009328E04D
:101280008242CFD900220023009201930C9B002BB5
:1012900001D01C605D600098019903B0F0BCBB46B2
:1012A000B246A946A046F0BD424620239B1A5246AC
:1012B000DA40414613004A468A40170042461F431F
:1012C000534693401E00AF42C4D90022002300922F
:1012D00001934346002BD9D0FB0772081A434646B8
:1012E0007B080EE0AB4201D1A2420CD8A41A9D416A
:1012F000012024196D410021013E24184D41002E8A
:1013000006D0AB42EED9013E24196D41002EF8D132
:10131000009801995B4600196941002B24DB2B00E2
:101320005A464446D3402A00E2401C005B46150062
:10133000002B2ADB26009E40330026004746BE4095
:101340003200801A9941009001919FE7A342BCD8D6
:1013500083E74246202300219B1A0022009101923C
:101360000122DA40019286E7424620239B1A2A0096
:1013700046469A402300F340444613432A00E24085
:101380001C005B461500002BD4DA42462F002023B8
:10139000260097409B1ADE403B003343CDE7C04612
:1013A0001C2101231B04984201D3000C10391B0A95
:1013B000984201D3000A08391B09984201D3000959
:1013C000043902A2105C40187047C04604030202B0
:1013D00001010101000000000000000010B500291B
:1013E00003D1FFF7DDFF203002E00800FFF7D8FF50
:1013F00010BDC046F8B5C046F8BC08BC9E46704754
:10140000F8B5C046F8BC08BC9E4670470000000016
:1014100001B40248844601BC604700BF6102000875
:1014200000002040000024400000004000000000B8
:1014300000002340000030400000314000009F4089
:10144000000022400000104000009D40202020208D
:1014500020101010101D1D8017007500FF030602DC
:1014600006003604102000007FC0000000040000C9
:10147000000000000019324B647D00000000008075
:101480004000080B100000000000FF012002001FB8
:1014900000800004FF081018001000140018001C41
:1014A0004044484C500000000810000008000000B4
:1014B00004000000041000000012000004210000DD
:1014C000002100000016000040114002C413001368
:1014D0008013A01340138813A81320001C000000E1
:1014E00003000000010000000100000000000000F7
:1014F000050360000400000001000000000000007F
:10150000010000000604600008000000A8050008B3
:101510007D0E001000000000F0FCFF7F01000000C5
:1015200000000010000000088000000040150010BE
:1015300080000008F8020000B00300081802000054
:1015400000093D0000093D0000127A0000093D003D
:10155000A00F000004000000A9000010810000108E
:1015600080B230B5C400002820D0114B0722186883
:101570000300BA331B885343026A9A181168002982
:10158000FCDA3E210B4A062511600B4A0B4911601B
:10159000A3210B4AC90055500A495450006A5458B7
:1015A0001B18002058605358002BFCDA30BDC04691
:1015B000CC03000804012640080126401E1F00003D
:1015C000000026401C05000010B54378FF2B11D108
:1015D00000F0FAF80400032000F00EF90121C368BE
:1015E0005B681A680A431A601A680A42FCD1200034
:1015F00000F01AF910BDF7B507000020019100F0C6
:10160000FBF83E4C050023681A005033BC321668C4
:101610001B788619002B59D000F0F6F800900328AB
:101620001AD000F0D1F8364A364B0400D358002BBC
:101630003CDA01212800344A00F0D6F8002835D1E0
:101640000198FFF78DFF002F3ED03368002BFCDBA5
:1016500000F0B2F805002AE0062000F0CDF823687B
:10166000BC331B68C0180368002B02DA274D280022
:10167000FEBD002000F0B0F8254B9842F6D00023C4
:10168000244A19000120126800F0C6F8041EEDD1AA
:10169000002000F0A1F81E4A1F4B904203D09C424C
:1016A000E4D00134F4E79C42BBD1DFE7174D009B47
:1016B000032B05D10121002000F076F80028F9D194
:1016C000200000F0B1F8D2E7144DF0E700F07CF80C
:1016D000012104000C4A280000F086F8002808D1F7
:1016E000002F08D03368002BFCDB00F065F8050004
:1016F000E6E7064DE4E7094DE2E7C046CC03000803
:10170000000026401C050000D00300080500520020
:1017100001018800E0030008F049020001005000C8
:10172000184BF7B51B6818495A6804230C69234302
:101730000B61012824D030BF1300FC331B69002B40
:101740001DD1A324114B12481249E40007681E5909
:101750000D680195104D056006251D513E240C6055
:101760000E4C3E351D511D59002DFCDA0C4CFC323F
:101770001461A322D20007609E50019B0B60F7BD4D
:1017800020BFD9E7CC03000800ED00E000002640B0
:1017900008012640040126401E1F00001C05000011
:1017A000AAAAAAAA0000000001B40248844601BC0B
:1017B000604700BF6105001001B40248844601BCC7
:1017C000604700BF2902001001B40248844601BCF2
:1017D000604700BFDB00001001B40248844601BC32
:1017E000604700BFD505001001B40248844601BC23
:1017F000604700BF8D02001001B40248844601BC5E
:10180000604700BF7501001001B40248844601BC66
:10181000604700BFAD0F001001B40248844601BC10
:10182000604700BF9D03001001B40248844601BC1C
:10183000604700BFE300001000000000000000004F
:101840000000000000000000000000000000000098
:1020000000F80F08252300100D0000009923001090
:10201000992300109923001099230010000000005C
:1020200000000000000000000000000095230010E8
:102030009523001000000000952300109523001048
:102040009523001095230010952300109523001070
:102050009523001095230010952300109523001060
:102060009523001095230010952300109523001050
:102070009523001095230010952300109523001040
:1022E00010B5054C237833B9044B13B10448AFF350
:1022F00000800123237010BDB829000800000000F1
:10230000BCD5001008B5034B1BB103490348AFF31C
:10231000008008BD00000000BC290008BCD50010EA
:1023200070477047FFF7FCFF72B6144C144DAC4277
:1023300009DA21686268A368043BA2BFC858D0507C
:10234000FAE70C34F3E70F490F4A00209142BCBF73
:1023500041F8040BFAE70D480D490860BFF34F8FB1
:1023600000F084F800F068F8FFF7DBFF07F0A8FA48
:1023700000F0B6FA07F090FAFEE70000C8D50010AA
:10238000E0D50010B8290008C82E00080020000879
:1023900008ED00E0FEE7FEE700B5042071460842C4
:1023A00002D0EFF3098002E0EFF30880043005F07B
:1023B00073FEFEE708B5012002F03AFE08BD704743
:1023C00010B5002005F056FD00B910BD0446124BB3
:1023D000186004F059FF0130B4FBF0F00F4B1860A7
:1023E00004F06AFF0130B4FBF0F40D4B1C60013CBB
:1023F0000C4BA3FB04239B0C01330B4A13700B4BB8
:10240000A3FB0434A4090134094B1C60002005F02F
:1024100031FD084B1860D8E7E8220008EC220008DC
:10242000E022000883DE1B43F4220008D34D621033
:10243000F0220008E422000808B5094802F016FA64
:10244000FFF7BDFFFFF7BCFF00221146032002F09B
:102450004BFE044802F0A6FC034802F0FBFC08BD5A
:102460000CD10010D429000858CB0010EFF31081D4
:1024700072B6074AD2F8883043F47003C2F8883045
:10248000BFF34F8FBFF36F8F81F31088704700BF8A
:1024900000ED00E008B500F0DBF800F00FF800F008
:1024A000CDF800F047F800F04DF808BD08B500F091
:1024B000CDF900F02DF800F06FF808BD08B50F2138
:1024C000012004F0E7FD00220F21012004F056FC5A
:1024D0000F21012004F09CFD0021084604F0DAFDE4
:1024E00000221146104604F049FC0021084604F081
:1024F0008FFD0721002004F0CDFD002207211046AA
:1025000004F03CFC0721002004F082FD08BD00001F
:1025100008B5054800F03CFD044800F039FD0448CA
:1025200000F036FD08BD00BF94CB00108CCB00102E
:1025300090CB001008B5002211462F2004F02CFD8E
:1025400008BD000010B50E4C0E4A0021204602F0D6
:102550003FFB0D4A0121204602F03AFB04F540748E
:102560000A4A0421204602F033FB094A062120468C
:1025700002F02EFB074A0721204602F029FB10BD7E
:10258000000031406CCC0010A4CC001034CC001002
:10259000FCCB0010C4CB001008B5184800F0F8FCC4
:1025A000174800F0F5FC174800F0F2FC164800F060
:1025B000EFFC164800F0ECFC154800F0E9FC15486B
:1025C00000F0E6FC144800F0E3FC144800F0E0FCE6
:1025D000134800F0DDFC134800F0DAFC124800F06C
:1025E000D7FC124800F0D4FC114800F0D1FC11488F
:1025F00000F0CEFC104800F0CBFC08BDA0CC0010D1
:10260000D8CC0010ACCB001068CC001030CC00103F
:10261000F8CB001098CB00109CCB0010A0CB001082
:10262000A4CB0010A8CB0010B0CB0010B4CB00108E
:10263000B8CB0010BCCB0010C0CB0010024B332233
:102640009A601A61704700BF00203040FEE700002A
:1026500030B583B007220021322004F09DFC962182
:10266000002005F06BFD05F0FBFCC0B96F4BD3F803
:10267000004F04F03F0405F0E3FC30B1012005F009
:10268000D5FC6B4B9B6C002B26DB684BC3F8004FD3
:1026900004F0F8FE04F0ECFE012004F007FF012036
:1026A00006F05CF806F002F806F0DCF806F0C6F872
:1026B00004F0E4FF0021084604F082FE002004F04C
:1026C000EDFD012004F0D2FD002004F05FFD594B28
:1026D0001B6893F83F4006E00620FFF7B7FF20464F
:1026E00005F008F9013C002CF9D10021012004F08B
:1026F00011FF002004F052FE00287BD00021084684
:1027000004F008FF0021084604F028FE4A4D00248A
:102710000094234622462146284602F075F900948B
:10272000234622460121284602F06EF9434804F070
:1027300081FE00286AD1012004F088FD002004F009
:10274000ADFD002004F092FD002004F01FFD0021EB
:10275000012004F0DFFE0021084604F0DBFE00212A
:10276000022004F0D7FE0021032004F0D3FE002154
:10277000042004F0CFFE0021052004F0CBFE3048F9
:1027800004F096FF002844D12E4805F041F80028B7
:1027900042D10021084604F0E1FD0021084604F082
:1027A0000FFE2949012005F0CBF8C0BB42F21071A1
:1027B000012005F053F9A8BB04F03EFD002004F011
:1027C0000FFD002004F022FD04F02CFD002108463E
:1027D00006F0A8F8012004F0F3FC04F049FE012003
:1027E00004F064FE6421002005F0A8FCFFF7E8FD7A
:1027F00003B030BD04F0BCFE40F2111398427FF4E8
:102800007DAF0121002004F0A9FD77E70520FFF747
:102810001DFF0420FFF71AFF0420FFF717FF032016
:10282000FFF714FF0320FFF711FF00BF00F0274060
:1028300000002740A02D00080000314040420F005A
:10284000DCCC0010400D030008CD001008B509488D
:1028500000F09EFB084800F09BFB084800F098FB46
:10286000074800F095FB074800F092FB064800F08F
:102870008FFB08BDF0CC0010F4CC0010F8CC001099
:10288000FCCC001000CD001004CD001008B50448A9
:1028900005F0D6FD08B1002008BD0248FCE700BFE6
:1028A000F82200080000020610B500F06FFB044695
:1028B00038B154B1FFF7EEFDFFF7F8FD5CB12046EB
:1028C00010BD01F01DFA0446F3E740F6E441002094
:1028D00001F05EFAEEE7FFF7D9FF0446EFE70000EC
:1028E00000B585B0FFF7E0FF00B101BE62B64FF45E
:1028F000E1330093FF231A460221032006F06EF80D
:1029000000B101BE002330223121164800F034FD11
:1029100000B101BE1449134800F0A4FD00B101BE8E
:1029200077221049114806F013FC00B101BE03AA3A
:1029300002A90E4806F0B5FB029806F083FD024698
:102940000B460B4807F062FC039806F07BFD02463D
:102950000B46084807F05AFC4FF47A7001F022FA4F
:10296000E5E700BF5C2B000814230008102C0008CA
:1029700010CD001024CD00100230800803D00130AB
:102980000238FCD100BF00BF7047EFF3108072B671
:10299000704780F31088704701BE0148704700BF40
:1029A00002020204024B0B600923136000207047EF
:1029B0001C23000808B5407805F05CFA08BD00004B
:1029C00038B5054614468A4294BF0023012383424A
:1029D00009D080F001038A422CBF002101218B42E3
:1029E00001D04DB138BD05F05BFE0549A1FB0431B6
:1029F000890C05F0A3FBF4E7FFF7E2FCF2E700BF68
:102A000083DE1B432DE9F04104460A78A2F10D0351
:102A1000DBB2012B04D90F2A2FD14E78013600E00A
:102A20004E78002004F0ECFC0746002004F0B6FCD1
:102A300005F000FA20FA07F8304605F0FBF920FA15
:102A400007F763786BB1F1B2607804F087FC054654
:102A500063789BB958B93A4641460020FFF7B0FF6A
:102A60000CE03A4641460120FFF7AAFFEBE7424659
:102A700039460020FFF7A4FF00E0024D2846BDE8DC
:102A8000F08100BF01020204F8B5054601390729AB
:102A900035D8DFE801F00426340634343424002627
:102AA00000E00226002004F0ABFC0746002004F002
:102AB00075FC05F0BFF920FA07F720FA06F46B78E9
:102AC0008BB13146687804F07BFC06466B78BBB965
:102AD00078B9224639460020FFF772FF10E003263E
:102AE000E0E70126DEE7224639460120FFF768FFCE
:102AF000E7E73A4621460020FFF762FF00E0014E7B
:102B00003046F8BD0002020408B519B1407804F05F
:102B1000DFFB08BD407804F005FCFAE708B5407813
:102B200004F0EEFB08BD00002DE9F84304460E4614
:102B30001546DDF82080DDF8249001279F404FEAFC
:102B4000520C1CEB00004FF0000341F1000106F0B5
:102B500021FDC9F80000B84201D9C9F80070B8F1E8
:102B6000000F19D0D9F8002000232046314606F086
:102B700011FD0246294698F8000001F0ADFD00283D
:102B8000B8BF4042B8F1000F08D0D8F804308342F3
:102B900006D30020BDE8F8830020F3E70020F9E722
:102BA0000048F7E70002020408B590F800C01CF0E6
:102BB000020F06D14A1E41780CF0030004F0DEF843
:102BC00008BD00234A1E41780CF0030004F03AF9D6
:102BD000F6E770B584B004460D46164605F05AF97E
:102BE0000146237813F0020F0ED013F0010F24D00A
:102BF0001D2303AA019200962A464801C90EFFF739
:102C000093FFE0B104B070BD13F0010F13D0102397
:102C100003AA019200962A4608460021FFF784FF86
:102C20000028EFD12078039A013A617800F0030080
:102C300004F0A4F8E6E70823EAE71523D9E7039BA5
:102C40005A09207803F01F03013A617800F003006D
:102C500004F0F8F8D6E708B50378417803F00300EC
:102C600005F031F908BD08B531B10378417803F0BA
:102C7000030004F0CDF908BD0378417803F00300A8
:102C800004F008FAF7E708B50378417803F0030089
:102C900004F032FA08BD0000004870475CCF001015
:102CA0002DE9F04182B007460D469046084601F0F6
:102CB00045FDC6B2002401E00134E4B2B44213D2AF
:102CC00005238DF804308DF805508DF8064001A8D5
:102CD00000F05EF903460028EED13D707C700122C1
:102CE000BA70C7F8048000E0024B184602B0BDE895
:102CF000F08100BF020E020430B583B00C460546D9
:102D000078B184B105238DF8043023788DF805302F
:102D100063788DF8063001A800F03AF928B103B0C5
:102D200030BD01BEEDE701BEECE7226863682A60B2
:102D30006B600123AB70F2E708B5034648B11A781F
:102D4000122A08D0032A0AD95A68126818469047EE
:102D500008BD01BEF3E71846FFF7E0FEF8E71846A6
:102D6000FFF791FFF4E710B5034648B11878122831
:102D700008D003280AD9586844681846A04710BDEF
:102D800001BEF3E71846FFF7BFFEF8E71846FFF766
:102D90006AFFF4E710B5044668B12046FFF7CCFFA0
:102DA00098B12378122B08D0032B0AD963689B684B
:102DB000204698470AE001BEEFE72046FFF7FAFDFC
:102DC00004E02046FFF747FF00E0002010BD10B5EB
:102DD000034648B11878122808D003280AD9586841
:102DE000C4681846A04710BD01BEF3E71846FFF7B8
:102DF000D3FDF8E71846FFF7ECFEF4E708B5034605
:102E000048B11A78122A08D0032A0AD95A681269D6
:102E10001846904708BD01BEF3E71846FFF734FE99
:102E2000F8E71846FFF7C0FEF4E710B582B0044695
:102E300090B1A37803B901BE05238DF8043023783F
:102E40008DF8053063788DF8063001A800F0E4F8BD
:102E50000023A37002B010BD01BEEAE770B50428DC
:102E60000DD00D46114602463C4C34F810E0441C8F
:102E70001D2C07D8E4B2394E36F8144004E00D2575
:102E80000520F0E740F231144FF0010C0CFA02FC7F
:102E9000334A0CEA02023AB9AE44A3F800E01B88B8
:102EA000A34258D2002070BDC21E182A32D8DFE8D3
:102EB00002F00D313431310F2531293131313131C9
:102EC0002B312D3131313131312F2700254A00E0AE
:102ED000254A1C80002AE2D00338182836D8DFE8BB
:102EE00000F01E353835351E2F3531353535353541
:102EF0001E351E353535353535331E001B4AE8E79E
:102F00001B4AE6E71B4AE4E71B4AE2E71B4AE0E705
:102F10001B4ADEE701BE0022DBE71A4AD9E7012699
:102F2000B542BCD232F81500704411FA80F1198014
:102F3000691CB142B3DA32F811407444A4B2AEE76E
:102F40000226EDE71026EBE70226E9E701BE0026A0
:102F5000E6E71A26E4E70C48A5E700BF0CD000100E
:102F6000280B0A0C9CCF0010D4CF0010D8CF001033
:102F700008D00010DCCF0010FCCF001000D00010F3
:102F800004D00010A0CF0010000E020400207047F3
:102F9000F0B583B004460027FFF7F7FC06460DF1B5
:102FA0000603A27861782078FFF758FF054668B9D4
:102FB000BDF80630C3F3C70203F007031449895C68
:102FC000012202FA03F3194218BF174605B9EFB9F7
:102FD0002DB13046FFF7DDFC284603B0F0BD0DF102
:102FE0000603A27861782078FFF738FF05460028AD
:102FF000EFD1BDF80630C3F3C70103F0070304485F
:1030000001229A40435C13434354E2E7014DE0E759
:10301000642C0008010E020430B583B00446FFF7AB
:10302000B4FC05460DF10603A27861782078FFF71D
:1030300015FF024660B9BDF80630C3F3C70003F0C0
:103040000703074C01219940235C23EA0103235421
:1030500002B101BE2846FFF79CFC03B030BD00BFA3
:10306000642C00082DE9F04782B0044688461746D4
:103070009A461E230371FF230372C3710025057551
:103080002B4615224049404600F02AFC06462B46B6
:1030900015223E49384600F023FC002E6AD0054632
:1030A00000286AD0327803789A4226D00023002B79
:1030B00066D017238DF804302B788DF805306B78A7
:1030C0008DF8063001A8FFF763FF8146E8B1B9F13A
:1030D000000F2ED0B9F1000F08D1BAF1000F31D096
:1030E00004F10C039AE8030083E80300B9F1000F30
:1030F00035D0484602B0BDE8F087727843789A42EE
:1031000001D00023D3E70123D1E79DF80520204B10
:1031100053F822302360019BA3801B0CA3710C2168
:10312000304601F064FA81460028D0D184F8078047
:10313000CDE70C21284601F05AFA81460028C9D172
:103140002772C7E701231A46211D04F10C0001F084
:1031500013FB8146B0FA80F040092075C6E70023D2
:103160000C4A0121204600F02DFB0028C1D1DFF8D8
:103170002890BEE7DFF82490BBE7DFF82090B8E79F
:10318000DFF81890B5E700BF90CD00103CCD0010DF
:103190005CD00010A0860100010A0204000A0204AB
:1031A00070B504460368ABB10023A4F88A3084F8F4
:1031B0008C30C4F89030C4F89430C4F89830C4F817
:1031C0009C30224652F8180B02F0AAFC054618B1B2
:1031D000284670BD01BEE7E7164A2146607900F037
:1031E000F9FB2268136843F0004313600023C4F81E
:1031F000A030C4F8A430C4F8A830C4F8AC30C4F887
:10320000843084F8883063790B4E0C4A032136F9F8
:10321000130000F02FFA637936F91330002BD7DB57
:1032200003F01F015B0901228A40054941F8232070
:10323000CEE700BFA132001090D000104532001040
:1032400000E100E070B5154D2E6800F0A7FA0446C5
:103250002860054655F8180B294603F0CCF9B4F858
:103260008A3013B90D4B1E6070BD2946206802F0EC
:10327000F7FE10F4803FF5D1B4F88A30032B03D069
:103280000023A4F88A30EDE70123A4F88A30214610
:1032900051F8640B2A4602F0E5FEE3E78C2C0008A7
:1032A00000B583B00B4650F8181B00910190022B1B
:1032B00005D0042B0BD0012003B05DF804FB1146B0
:1032C000684602F01BFDB0FA80F04009F4E71146B1
:1032D000684602F075FDB0FA80F04009ECE70000A6
:1032E00010B5044688B1206840B104F1180102F01D
:1032F000F9FC206802F0D0FC0023236023791E2B08
:1033000005D194F8B03023B310BD01BEEBE7002225
:103310001146607900F05EFB6279154B33F912308B
:10332000002B0CDB03F01F015B0901228A402033D4
:10333000104941F82320BFF34F8FBFF36F8F94F8EC
:10334000B03013B11E232371DBE7201DFFF764FEAD
:10335000F8E7E01D01F040F904F1080001F03CF944
:10336000237D002BD0D004F10C00FFF75EFDCBE7EE
:1033700090D0001000E100E0F8B50D4616461F465B
:10338000044688B1002184F8B010B422204606F02B
:10339000C9FA3B46324629462046FFF763FE0546FA
:1033A00020B14DB92846F8BD01BEEBE704492046DF
:1033B000FFF7F6FE0546F4E72046FFF791FFF1E739
:1033C00048D00010F0B587B00C46074660B36CB328
:1033D00074B33E4656F8180B314602F083FC0DF1EB
:1033E000040C1E4D0FCDACE80F002B68CCF800305C
:1033F0002378FBB101238DF80430A3788DF80730D2
:1034000023783BB1637A8DF809308DF80A30237A3E
:103410008DF80830324601A9386802F081FB054674
:1034200050B1284607B0F0BD01BED0E701BECFE7DE
:1034300001BECEE70223DEE7237862680121384629
:1034400000F0C0F928B13A68136843F000431360F4
:10345000E7E7386802F020FC014DE2E748D00010B1
:10346000010A020400B585B0024688B191B101ABF2
:1034700003C983E80300FE218DF80C1000218DF8AC
:103480000D1019461046FFF79DFF05B05DF804FBCF
:1034900001BEEBE701BEEAE72DE9F04383B0064643
:1034A0000F4615461C46DDF828809DF82C9000F04C
:1034B0008BFA002837D1F369B3F1805F11D033461E
:1034C00053F8180B009343460022394602F0D2FE0F
:1034D00007468FB1B9F1000F1ED1384603B0BDE8E1
:1034E000F083334653F8180B0093434600223946C5
:1034F00002F05AFE0746ECE7002CEBD0334653F8B7
:10350000180B4246297802F089FF07460028E1D1CE
:10351000013CA4B20135EFE7324652F8180B4146A0
:1035200002F004FFD9E7014FD7E700BF031A0204F6
:103530002DE9F04782B00646884615461C460A9F8C
:103540009DF82C9000F040FA002842D1F369B3F1C5
:10355000805F13D0334653F8180B00933B4601228B
:10356000414602F087FE8246BAF1000F27D0B9F13A
:10357000000F27D1504602B0BDE8F087334653F81C
:10358000180B00933B460122414602F00DFE824695
:10359000EAE7334653F8180B00933B462A46414668
:1035A00002F0F0FE82460028E1D1013CA4B20135D0
:1035B000002CDCD0012CECD14FF00108E9E74FF0F2
:1035C0000008F5E7324652F8180B394602F0AEFE15
:1035D000D0E7DFF804A0CDE7031A020470B582B08B
:1035E0000D468378772B16D8DA08134909688E6957
:1035F00006EBC216C27803F00704009201232A46A4
:103600002146304601F000FA0A2D08D00B2D0CD0CF
:10361000002002B070BD084A12689669EAE70122EC
:103620002146304601F04AFAF2E7002221463046B0
:1036300001F044FAECE700BFA02D000810B582B0FD
:103640000146772810D8C308094A1268906900EB30
:10365000C310002400940123082201F0070101F0A7
:10366000D3F9204602B010BD014B1B689869F0E702
:10367000A02D000800B583B0ADF8000001911146FF
:10368000684604F083FC03B05DF804FB1238202880
:103690002AD8DFE800F01F292929292929292929E1
:1036A0002929292929292929292929112C131517DB
:1036B000191B1D2123252700002070470220704779
:1036C000032070470420704705207047062070478C
:1036D0000720704708207047092070470A2070476C
:1036E0000B2070470C20704701BE0020704701205E
:1036F0007047000038B50346084850F82340084892
:1037000050F8235044B12DB1002318460BB9204680
:10371000A84738BD0123F8E70123F6E7C82C0008C5
:10372000942C00082DE9F04105468846084600F033
:10373000BAFF06460024012718E002222946304637
:10374000FFF7D8FF0136F6B2B442F6D8B8F1020F4F
:103750001BD0B8F1080F18D0B8F1010F18D1BFB1C4
:103760000D4B01221A7013E00134E4B20C2CEDD899
:10377000324629462046FFF7BDFF07460028F3D111
:10378000B8F1010FF0D10026DEE7034B00221A70DA
:103790003846BDE8F08100BF902C000808B5EFF373
:1037A0000580103800B240F2FF33984205D0FFF791
:1037B0006DFF034B53F8200008BD0020FCE700BF5D
:1037C000C82C00082DE9F047844614461E460A46D8
:1037D00041B3076842B39CF8050042B30CF10C05F5
:1037E00042B39CF81480002C65D0344B9C4224D802
:1037F0008EB3DFF8D49029786A7801F0030103F0E2
:10380000CBFB8246002855D1B8F1000F2CD1002EF9
:1038100044D02846FFF7BEFA0146384602F0FCFACB
:10382000044648E00768D5E79CF80500D5E70CF1A9
:103830000C05D5E79CF81480D5E7214B9C4203D8B2
:1038400066B9DFF88890D6E71E4B9C4230D846B95F
:10385000DFF87C90CFE7DFF87C90CCE7DFF878905A
:10386000C9E7DFF87890C6E7002211462846FFF73F
:103870007AFA034620B153B1002BC8D054461AE05F
:10388000002249462846FFF7A2FA0346F3E7002242
:1038900001212846FFF767FA0346EDE72846FFF7C0
:1038A00079FA02462146384602F0F6FA044602E06A
:1038B000002400E000242046BDE8F087A086010037
:1038C000801A060040420F0000127A0020B38100E7
:1038D000002D310180841E0020BCBE0080F0FA0261
:1038E0002DE9F04383B080460E46174699460024E2
:1038F00016E099F802206B789A4201D0002325E067
:10390000012323E017238DF80430735C8DF8053014
:103910006B788DF8063001A8FFF73AFBC8B1013487
:10392000BC421AD2A10006EB840595F802C0C4453A
:10393000F5D1B9F1000FE5D099F80030172BE1D19E
:1039400099F80120735C9A42D3D00023002BE6D073
:1039500004E001A8FFF760FB00E00025284603B063
:10396000BDE8F0832DE9F04383B007460D461646C7
:103970000024A14600E00134B44220D24FEA84087A
:1039800005EB840393F802C0BC45F4D117228DF8EF
:10399000042015F824208DF805205B788DF806307A
:1039A00001A8FFF7F5FA0028E5D101A8FFF734FBDD
:1039B00015F808200123934049EA0309DBE748464C
:1039C00003B0BDE8F0830000014B1878704700BFDA
:1039D000902C000808B5124B43F82010114B43F807
:1039E000202000231A4601E00133DBB20C2B08D85B
:1039F0000B4850F823000028F6D0012A07D00132E6
:103A0000F2E72AB901B101BE074800F06DF908BD1F
:103A1000012AFCD10029FAD0034800F059F9F6E751
:103A2000C82C0008942C0008402300082DE9F04120
:103A30000446884616461F4604E0012288F8002006
:103A4000E2B1E46840F28975AC4217D02568002DD8
:103A5000F7D094F804C036EA0C03F2D1637937EA60
:103A60000303EED0A26839463046A8470028E4D1C7
:103A7000012F01D00122E1E70022DFE72046BDE867
:103A8000F08170B504460D46164600E0E468AC428D
:103A90000FD02368002BF9D0217936EA0102F5D145
:103AA000627912F0020FF1D1A268022130469847E4
:103AB000ECE770BD38B505460C46FEF766FFE368D7
:103AC00013B1FEF766FF38BD2B68E3602C60F8E7A2
:103AD00038B504460D46FEF758FF01E003F10C042B
:103AE000236840F28972934205D0AB42F6D1EB686D
:103AF00023600023EB60FEF74CFF38BD2DE9F04159
:103B000082B00D4600F0DBFD044601238DF807303E
:103B1000022808D0082806D0102804D01A4B1E68A6
:103B20001A4B1F6803E0184B1F68184B1E6823468A
:103B30002A460DF107013846FFF778FF80469DF8C9
:103B4000073063B930469DF807300BB9012C0ED011
:103B50009DF80730B3B1002002B0BDE8F0812346E4
:103B60002A460DF107013046FFF760FFEBE72A46D2
:103B700001463046FFF785FF2A4641463846FFF7A3
:103B800080FFE5E70248E7E75423000850230008D8
:103B9000FF00420038B50C4610212046FFF7AEFF6B
:103BA0000546042C01D0284638BD002004F062F9F7
:103BB0000349A1FB0031890C012004F0BFFAF2E7B0
:103BC00083DE1B4338B50C4608212046FFF796FFDD
:103BD0000546082C01D0284638BD002004F04AF9DB
:103BE0000349A1FB0031890C002004F0A7FAF2E799
:103BF00083DE1B4308B508460421FFF77FFF08BD9D
:103C000010B50446FFF77AFF042C02D0082C17D019
:103C100010BD4FF0E0231B6913F0010F04D00E4BD1
:103C20001B7813B1012300E000230C4A1370002B12
:103C3000EED04FF0E022136923F001031361E7E7B0
:103C4000064B1B78002BE3D04FF0E022136943F0C2
:103C500001031361DCE700BFFE2C0008982D00086B
:103C600008B50846012902D1044B1B881BB9022163
:103C7000FFF7C6FF08BD0248FCE700BFFC2C0008A8
:103C8000FF00420008B508460121FFF7B9FF08BD53
:103C900038B584468E4615460C4C0FCCCCF8000047
:103CA000CCF80410CCF80820CCF80C3007CCCCF8B9
:103CB0001000CCF81410CCF81820CCF800508CF878
:103CC00004E0604604F0BCFB38BD00BFACD000107F
:103CD00008B5014618B10348FFF7ECFE08BD01BE68
:103CE000F9E700BF5423000808B5014618B103489E
:103CF000FFF7EEFE08BD01BEF9E700BF5423000840
:103D000008B504F093FD38B9164A00211648FFF7AC
:103D1000BFFF20B9154808BD04F0DCFBF4E7144AE6
:103D200001211448FFF7B4FF08B91048F3E7124A1D
:103D300002211248FFF7ACFF08B90C48EBE7104A24
:103D400003211048FFF7A4FF08B90848E3E70E4A2B
:103D500004210E48FFF79CFF08B10020DBE7034871
:103D6000D9E700BF853C0010782D0008011A020435
:103D7000613C0010082D0008F53B0010242D0008C0
:103D8000C53B00105C2D0008953B0010402D00083D
:103D9000024600B101BE024B43F82210704700BF3B
:103DA000942D000808B504F025F9002008BD01286D
:103DB00003D0022803D1032070470220704700205F
:103DC00070470138032809D8DFE800F0020B040629
:103DD00002207047062070470820704701BE02206D
:103DE000704704207047814206D9091A642303FBF7
:103DF00001F1B1FBF0F07047411A642303FB01F1BC
:103E0000B1FBF0F0704700002DE9F04F87B0044699
:103E10000D46174698469DF840901E2303710023D7
:103E20004373FF23C371037243728372994218D0A4
:103E3000FF2F1AD0FF2D02D1FF2F00F0DF80FEF7F9
:103E4000A4FD8246FF2D15D14FF0FF36FF2F18D16C
:103E5000B8F1FF0F1CD1B9F1FF0F20D136B3002309
:103E60002BE09945E4D0664E9CE0B8F1FF0FE1D01D
:103E7000634E97E0132263492846FFF773FD064619
:103E8000E4E7132260493846FFF76CFD0640DFE7A0
:103E900012225E494046FFF765FD0640DBE712222D
:103EA0005B494846FFF75EFD0640D7E75046FEF700
:103EB00070FD534E76E00133DBB226FA03F212F0C6
:103EC000010FF8D017228DF814208DF8153000233B
:103ED0008DF8163005AB13224A492846FFF700FD3E
:103EE000834605AB132248493846FFF7F9FC029098
:103EF00005AB122245494046FFF7F2FC019005ABA5
:103F0000122243494846FFF7EBFC0390FF2D02D0F5
:103F1000BBF1000F0DD0FF2F01D0029B4BB1B8F1C8
:103F2000FF0F01D0019B23B1B9F1FF0F02D0039B1A
:103F300003B901BE05A8FFF72BF806465046FEF769
:103F400028FD7EBB059BA3801B0CA371FF2D2DD1EB
:103F50000EB9FF2F33D15EB9019B4BB10821184632
:103F600000F045FB064618B90123E37284F8098086
:103F70005EB9039B4BB10621184600F038FB06469C
:103F800018B90123237384F80A9056B9119BFBB129
:103F90000023637304F11003119A92E8030083E88D
:103FA000030016B3304607B0BDE8F08F062158462F
:103FB00000F01DFB06460028CAD12572C8E708217B
:103FC000029800F014FB06460028C4D1E771C2E74E
:103FD00001231A46211D04F1100000F0CDFB064616
:103FE000B0FA80F35B096373DBE7217C627C01F04C
:103FF0000301607902F0D0FF0646D3E7004ED1E717
:10400000001F0204C0CE001074CE0010E4CD0010DA
:104010002CCE00102DE9F8430446037AFF2B0CD078
:10402000D908772B05D84C480068866906EBC1167D
:1040300004E0494909688E6900E00026A17AFF2959
:104040000ED0207BD0B1C808772905D8424D2D6805
:10405000AF6907EBC01704E03F480068876900E0DC
:10406000002703F0070501F00708013A072A65D881
:10407000DFE802F0064F64686464644F0027F0E7ED
:10408000A14659F8180B494602F0E4FD10F0010F63
:1040900001D0002054E04946206802F0D9FD10F01C
:1040A000010F51D12168D1F80832C3F30803D1F8C8
:1040B0000822C2F3C032D34248D1D1F80833C3F347
:1040C0000803002B44D176B12946304600F0D6FCD7
:1040D00084F898002946304600F0FEFC002229466C
:1040E000304600F059FC77B14146384600F0C6FC36
:1040F00084F899004146384600F0EEFC0022414623
:10410000384600F049FC4946206802F0FDFC0120D9
:1041100016E02268136843F0004313602EB194F850
:1041200098202946304600F037FC9FB194F899203A
:104130004146384600F030FC012001E001BE00207D
:10414000BDE8F8830120FBE70020F9E70020F7E74E
:104150000020F5E70120F3E7A02D0008F8B5314D68
:104160002E68FFF71BFB2860002859D00446014643
:1041700051F8180BD0F88C5FD0F8CC7F02F06CFDB2
:1041800015F0200F09D023682022C3F8802FD3F820
:10419000803FE36C0BB11046984715F0400F09D0F3
:1041A00023684022C3F8802FD3F8803FE36C0BB123
:1041B0002020984715F0010F04D0E36C13B14FF4A1
:1041C0008070984715F4007F13D023684FF4007275
:1041D000C3F8802FD3F8803F2268D2F8883F43F499
:1041E000007123F4EE6323F0030303B101BEC2F8B0
:1041F000881F17F0400F09D023684022C3F8C02F52
:10420000D3F8C03FE36C0BB11020984717F0010FB3
:1042100004D0E36C13B14FF400709847014B1E605B
:10422000F8BD00BF9C2D000838B50C46154603F0BC
:1042300031FE05FB04F4B0FBF4F038BD2DE9F84382
:1042400080460E460824FF27A14601E00134E4B26F
:10425000102C15D806FB04F503F01CFE00EB5501ED
:104260002246B1FBF5F14046FFF7DEFF014630463E
:10427000FFF7B9FDC0B28742E8D90746A146E5E796
:104280004846BDE8F883000070B5044642791A4BF1
:1042900053F82200214641F8540B04F1180202F0B1
:1042A00083FA054608B1284670BD0023C4F89C3047
:1042B000C4F8A030C4F894306379104E104A03213A
:1042C00036F91300FFF7D6F9637936F91330002B6E
:1042D00007DB03F01F015B0901228A40094941F80D
:1042E0002320094A21466079FFF774FB226813688E
:1042F00043F000431360D6E75CD0001090D000106C
:104300005D41001000E100E01540001010B50446CA
:1043100088B1206840B104F1180102F0F5FB206873
:1043200002F0CEFB0023236023791E2B05D194F8E5
:10433000A43023B310BD01BEEBE762791B4B33F908
:104340001230002B0CDB03F01F015B0901228A40B5
:104350002033174941F82320BFF34F8FBFF36F8FEE
:10436000002211466079FFF735FB94F8A43013B1B1
:104370001E232371DBE7201DFEF74EFEF8E7E01D4C
:1043800000F02AF904F1080000F026F904F10A000F
:1043900000F022F904F1090000F01EF9637B002B04
:1043A000C8D004F11000FEF740FDC3E790D0001024
:1043B00000E100E0437B0BB9334870472DE9F0473B
:1043C00004460E4690460546002155F8100B02F0B3
:1043D0009BFB002211462846FEF7C5FC30B122683F
:1043E000136843F000431360BDE8F08704F104094B
:1043F00031464846FFF722FF0746A06500FB06F658
:1044000003F048FD00EB5600B0FBF6F631462846B7
:10441000FEF7F4FC824640BB3A4631464846FFF779
:1044200003FFB8F1000F01D0C8F8000000220121FD
:104430002846FEF798FC94F8703013B34FF480339D
:10444000E26D082A01D84FF4006A43EA0A03013FEB
:1044500007F00F071F43236847F000771F602268AB
:10446000136843F000431360BEE700220121284691
:10447000FEF779FC2268136843F00043136050464E
:10448000B2E75346DCE700BF061F0204F8B5064654
:104490000F461546FFF798FAA8B93368D3F84033AA
:1044A0002C4602E03368D3F84033B3F1FF3F07D125
:1044B000002DF7D04CB1012003F09CFD013CF1E749
:1044C0003B700020F8BD0248FCE70248FAE700BF55
:1044D000031A0204021F020438B504460D46FFF712
:1044E00073FA28B1044806E02946206800F0C1FEAE
:1044F0000028F9D0002038BD031A020408B503468D
:1045000030B139B153F8180B02F00AFB002008BD96
:1045100001BEF6E701BEF5E72DE9F04182B00C4699
:10452000164698460A9F0546002844D0A822002136
:10453000284605F0F7F9099B01939DF82030009378
:104540004346324621462846FFF75EFC044618BB28
:1045500005F1540C1F4C0FCCACE80F000FCCACE8AD
:104560000F000FCCACE80F0094E80F008CE80F00B0
:10457000EB7A85F874305FB13B68EB653879FFF70B
:1045800020FC85F86100387AFFF711FC85F862009D
:104590002846FFF779FE044644B92FB1F96819B1EE
:1045A0003A692846FFF7AAFF6B7B33B96CB92046FE
:1045B00002B0BDE8F08101BEB8E700224FF4E1315E
:1045C0002846FFF7F7FE0446F0E72846FFF79EFE71
:1045D000EDE700BFC8D0001010B504460078FF28F2
:1045E00000D110BD00F037F8FF232370F9E770B554
:1045F00084B004460D4683780B228DF80020DA083B
:104600008DF8012003F007038DF80230009BADF810
:104610000C301B0C8DF80E30039BADF808301B0CD2
:104620008DF80A30029BADF804301B0C8DF8063073
:1046300001A8FEF7ADFC064610B1304604B070BDCF
:1046400029462046FEF7CAFF06460028F5D001A8F5
:10465000FEF7E2FCF1E710B584B00446FEF7EEFF8A
:1046600000B101BE0B238DF80030E3088DF8013056
:1046700004F007048DF80240009BADF80C301B0CD1
:104680008DF80E30039BADF808301B0C8DF80A3006
:10469000029BADF804301B0C8DF8063001A8FEF724
:1046A000BBFC04B010BD431E072B05D8DFE803F0A8
:1046B000060604060404040601BE01207047431EDA
:1046C000072B05D8DFE803F00606040604040406F9
:1046D00001BE012070470000012807D002280DD03C
:1046E00010B101BE00207047881A7047A1EB020C80
:1046F000114A02FB0CFC9CFBF1F0704738B500231B
:10470000B1EB020C63EB03041CEB0C0044EB040262
:1047100010EB0C0044EB02024FEA421E4EEAD06E50
:104720004501401942EB0E0E10EB0C000A4644EB1B
:104730000E0104F0DFFE38BD40420F00122817D8EA
:10474000DFE800F00A180C0E1616161616161616C6
:104750001612161016161400082070470420704711
:1047600001207047022070470620704706207047DE
:1047700001207047102070472DE9F04383B00446B4
:1047800016461F460B4691B119780539182943D8AA
:10479000DFE801F03A4242424242420F4242424284
:1047A0004242420F1C42422A42424242230001BE80
:1047B000EAE7274B93E8030002AB03E903006946ED
:1047C0002046FEF799FA03B0BDE8F083214B93E849
:1047D000030002AB03E90300F1E71F4B93E803007A
:1047E00002AB03E90300EAE75B7833B91B4B93E8BC
:1047F000030002AB03E90300E1E7164B93E8030073
:1048000002AB03E90300DAE701BE1548DBE74FF02E
:1048100001090EE001BE0EE00025A9461148032D56
:10482000D1D8114B13F805804645F0D0B9F1000FEF
:104830000CD0002CEED0FEF72FFA0246414620465F
:10484000FEF72EFA0028BED0002FBCD00135E6E7D7
:1048500014CF00101CCF001024CF00102CCF00105C
:1048600002020204020E020408D10010014B18607B
:10487000704700BFA02D0008B0F1204F3CD018D8E1
:1048800080283BD007D9B0F5807F3FD0244B984299
:1048900009D024487047102832D0402801D122483E
:1048A000704700282ED170474FF4A40070471D4870
:1048B00070471E4B98422BD02DD31D4B98422CD8BD
:1048C000B0F1704F12D900F1805001380428EED8B1
:1048D00001A353F820F000BFA9480010AF48001012
:1048E00009490010F1480010F54800100D487047C4
:1048F0001048704710487047002070470F487047B5
:104900000F487047074870470E4870470448704783
:104910004FF4A0007047034870470248C3E700BF48
:1049200006005200FF00520002005000090000A0E3
:10493000050000F002005200030052000500520082
:10494000010050000100520010B5104B1B6893F895
:104950003330012B00D801BE0C4B1C68236AB4F81D
:10496000BA201344D4F8BC20D358002B0BDB084BDF
:104970001868FFF781FF636801229A6063689B688B
:10498000002BFBD110BD0348FCE700BFA02D0008A1
:10499000A42D00080200500010B5072900D901BE5F
:1049A00032F01F0300D001BE164B1B689C69001B30
:1049B000C0095B694FEA001C03EB0010032910D803
:1049C00053F80C00C9004FF01F0E0EFA01FE20EA4A
:1049D0000E0002F01F0202FA01F1014343F80C102D
:1049E00010BD04394368C9004FF01F0C0CFA01FCDC
:1049F00023EA0C0302F01F0202FA01F1194341609D
:104A0000EEE700BFA02D0008F8B507460D46144696
:104A10001E469DF81820072900D901BE34F00F0367
:104A200003D1012C01D0092C00D101BE012E00D9E7
:104A300001BE32F01F0300D001BE29463846FFF701
:104A4000ABFF3B680122AA4023EA020306F00106FD
:104A5000AE401E433E60084B1B6893F88110CB5953
:104A6000AD000F22AA4023EA020304F00F04AC4079
:104A70001C43CC51F8BD00BFA02D0008072900D968
:104A800001BE0D4B1B689A69801AC0095B6902015F
:104A900003EB0010032906D89858C90020FA01F149
:104AA00001F01F00704704394068C90020FA01F185
:104AB00001F01F00704700BFA02D0008072900D992
:104AC00001BE012A00D901BE012303FA01F10AB98E
:104AD0004160704781607047072900D901BE0123FA
:104AE00003FA01F18160704700B5072900D901BEC2
:104AF00032F00F0303D1012A01D0092A00D101BEEF
:104B000089000A4B1B6893F881E05EF800304FF093
:104B10000F0C0CFA01FC23EA0C0302F00F028A408E
:104B20001A434EF800205DF804FB00BFA02D0008DA
:104B300000B5072900D901BE012A00D901BE0A4BE0
:104B40001B6893F882E05EF800304FF0010C0CFA1D
:104B500001FC23EA0C0302F001028A401A434EF8DA
:104B600000205DF804FB00BFA02D0008082900D933
:104B700001BE012A00D901BE83694FF0010C0CFA75
:104B800001FC23EA0C0302F001028A401A4382610D
:104B90007047000000B5082900D901BE032A00D9DA
:104BA00001BE4900094B1B6893F880E05EF80030B5
:104BB0004FF0030C0CFA01FC23EA0C0302F0030291
:104BC0008A401A434EF800205DF804FBA02D00082F
:104BD000002800F0A280F8B50D4614460646002ACB
:104BE00000F09D80072900D901BE2368012B00D960
:104BF00001BE636833F00F0203D1012B01D0092BF2
:104C000000D101BE237A33F01F0300D001BEE36858
:104C1000032B00D901BE2369012B00D901BE6369B2
:104C2000012B00D901BE236A012B00D901BE636AA2
:104C3000012B00D901BEA36A012B00D901BEE36A92
:104C4000032B00D901BE236B072B00D901BEE369FA
:104C5000032B00D901BEA369012B00D901BE01219C
:104C6000A9406A0002F1100C032303FA0CF3194364
:104C70002C4F3B6893F88300835923EA0101A36911
:104C800003F00103AB400B43E26902F0030202FAB6
:104C90000CF213438351227A29463046FFF77CFEFB
:104CA000626829463046FFF71FFFE2682946304612
:104CB000FFF770FF226929463046FFF757FF626908
:104CC00029463046FFF734FF3B6893F8841070584C
:104CD00020F0FF00236A03F00103626A520002F031
:104CE00002021343A26A920002F004021343E26A32
:104CF000D20002F018021343226B5201D2B21343C6
:104D0000AA0002F47E72934003437350226829463E
:104D10003046FFF7D3FE0020F8BD03487047024835
:104D2000FAE700BFA02D000801005A00084B1B68DD
:104D3000D3F8BC301B58002B07DA0B0C1B0403B153
:104D400001BE89B24160002070470248704700BF31
:104D5000A02D000801008A000368002B08DAC26059
:104D60000B0C1B0403B101BE89B2816000207047A7
:104D70000048704701008A000A4651B1074B1B6882
:104D8000D3F8BC301B58002B05DAC3681360002031
:104D9000704701BEF2E70248704700BFA02D00082F
:104DA00001008A00034B1B6803B17047014B186078
:104DB000FBE700BFC82D0008F0B4049D234C246815
:104DC000002C40D0214C27682C2400FB04F4381917
:104DD000DEB23E51C3F3072444601B0C83601C4BBE
:104DE0001B6893F833309E4200D301BE184B1B68FA
:104DF0001C6AB3F8BA7007FB06440461446893F870
:104E000034309C4200D301BE114B1B681B6A8034B6
:104E100003EB441343618468260C360406B101BEDB
:104E2000260C360406B101BE1FFA84FC4CEA044489
:104E30009C60C26101620023836115B1B5F9003045
:104E40008381F0BC704701BEBCE700BFC82D0008DD
:104E5000A02D000830B58FB00446002847D0A369C4
:104E6000072B00D901BEE36A002B42D0236B002B35
:104E700041D00DF11C0C04F1140EBEE80F00ACE89B
:104E80000F00DEF80030CCF800300DF1080CA6461B
:104E9000BEE80F00ACE80F00DEF80030CCF80030C0
:104EA000079B1733ADF83030089B0D930CAD009580
:104EB0000B9BA26AE16A0A98FFF77EFF002100912E
:104EC000069B0A460598FFF777FF216B284603F0FB
:104ED0005DF8BDF93030002B07DB03F01F015B09E3
:104EE00001228A40054941F823200FB030BD01BEA0
:104EF000B5E701BEBAE701BEBBE700BF00E100E0D5
:104F000030B51546002A30D01D4A1268002A2ED02E
:104F10001B4A14684FF02C0C0CFB00420CFB0141A7
:104F200048684FF0010E0EFA00F04FEA004C50684E
:104F30000EFA00FE1469E4B18869E0B92468002C17
:104F40001BDA2C882C6044EA0C042C601469E560A0
:104F500001248C614B6212694FEA1E431B0403B1AA
:104F600001BE1FFA8EF3936030BD01BECCE701BED7
:104F7000CEE70448F8E70448F6E70348F4E700BF43
:104F8000C82D000804028A0007028A0070B582B0AA
:104F900000230193044628B323692BB363692BB321
:104FA000236A2BB36369DD682A0C0BD02A0C120428
:104FB0001A601B6820691D4B1B68D3F8BC301B5856
:104FC000002B17DBADB24DB163691D601B68636ACE
:104FD0003BB39847002363620023A36163691B68A6
:104FE00002B070BD01BED7E701BED7E701BED7E76B
:104FF00001BED7E701A9FFF7BFFE60B901980368BA
:105000001E0CDBB2E2699A4206D9226A52F82330BA
:1050100013B1984700E0002631462069FFF786FE6D
:10502000D0E7A36A002BD7D09847D5E7A02D00087A
:1050300008B5064B1B683BB1044B1B682C2202FBD6
:105040000030FFF7A3FF08BD01BEF5E7C82D00083B
:10505000214B1B6893F83330834238D910B50C4686
:10506000002936D00B6813F01F0301D01B4810BD78
:10507000194A126892F83320904200D301BE164AB2
:1050800011680A6AB1F8BA1001FB0020144A1060D6
:1050900004E06268002142F8231001332268B3EB78
:1050A000521FF6D30021FFF741FE224600210C4B90
:1050B0001868FFF751FE08B10A48D8E70021084BED
:1050C0001868FFF733FE0028D1D00648CFE7034821
:1050D00070470248CBE700BFA02D000803018A00FB
:1050E000CC2D000801018A0010B50B4614461AB1F8
:1050F000E4B1ABB90E4810BD0029F9D10D4A1268D0
:1051000092F83320904200D301BE0A4A11680A6A1D
:10511000B1F8BA1001FB0020074A10601846EAE710
:1051200006490B604C60FFF793FFE4E70048E2E7B5
:1051300003018A00A02D0008CC2D0008D02800080B
:105140002DE9F041194B1B68DD682B6883422BD990
:105150000C46460900F01F00012303FA00F8B9B11C
:105160000027124B18680368002B17DA6A6852F898
:10517000263013EA080F0FD023EA080342F826303E
:1051800000250021FFF7D2FD54B12846BDE8F0818B
:10519000FDF7FBFB0746E4E7054DF2E7054DF3E7B6
:1051A0003846FDF7F6FBF0E7034DEEE7CC2D00089F
:1051B000020188000301880004018A000B4B1B6870
:1051C000DB681A6882420CD9410900F01F000122F5
:1051D00002FA00F05B6853F82130034203D0044820
:1051E0007047044870470448704700BFCC2D000842
:1051F0000101880004018A0000018800084B1B6837
:105200009B6CC34013F0010F00D101BE044B1B681F
:105210001B6910308002185800F00F00704700BF63
:10522000A02D000810B4D0F8003313F0080305D007
:1052300000230DE0D0F84043CC5401339342F9D31E
:105240005DF8044B7047D0F8404321F81340013318
:105250009342F8D3F4E710B51446D0F80833C3F3FB
:1052600008039A4200D31C462246FFF7DBFF204684
:1052700010BD036813F4006F0AD08022D0F8083202
:10528000C3F30803934205D0C0F8401201207047D1
:105290004022F3E70020704710B4D0F8003213F03A
:1052A000080305D000230DE0CC5CC0F84042013378
:1052B0009342F9D35DF8044B704731F81340C0F8BE
:1052C000404201339342F8D3F4E710B51446036823
:1052D00013F4006F0DD08023D0F80822C2F3080227
:1052E0009B1AA34200D81C462246FFF7D5FF204652
:1052F00010BD4023F0E702E0C0F84012013A002A56
:10530000FAD1704710B51446036813F4006F0DD03E
:105310008023D0F80822C2F308029B1AA34200D8C7
:105320001C462246FFF7E7FF204610BD4023F0E76A
:1053300010B50346486841F2010290423CD0D3F8D0
:105340000802C0F30800D3F80822C2F3C0320244B6
:10535000086B801A4863086A10F0080F05D1C86A04
:105360001044C862886A821A8A620A6A42F0040299
:105370000A620A6A22F001020A620022C3F8882F38
:105380001020D3F84C4F40F2011214420DD01A688D
:1053900022F000421A6000229A66DA661A6842F029
:1053A00000421A601B6840F040004FF080534B6091
:1053B0004B6C03B1984710BDD3F80823C2F3080221
:1053C0009AB10A6A42F040020A620A781AB3D3F824
:1053D000042342F48032C3F80423D3F8042322F4D4
:1053E0008032C3F80423D3F804230A6A42F020026F
:1053F0000A620A6A22F010020A621A6E22F420423D
:105400001A660022C3F8C82F0122C3F8C02FD3F8B0
:10541000C02F2020B5E7D3F84023E6E7D0F80C3FB3
:1054200013F0020F17D00222C0F8002FD0F8002F7F
:10543000D0F8002F12F0040F23D04FF400108A6828
:1054400002438A604A68B2F5B81F04D00A7BDAB119
:105450004FF4C0124A6013F4807F03D08A6842F48C
:1054600000028A6013F0010F03D08A6842F48002C0
:105470008A6040F21112134202D04FF4C0134B6005
:1054800070474FF48010DAE74FF4B012E2E70023E0
:10549000C0F8C83FC0F8883F836E23B140F21713AD
:1054A000C0F8083F704740F21313C0F8083F1823B4
:1054B00083664FF4B8134B607047000010B5D0F806
:1054C0000C2F036E23F4807303660023C0F8C83FDB
:1054D000C0F8883FC0F8083F40F21713C0F8003FFB
:1054E000D0F8003F8B6823F480338B604B7B43B351
:1054F0008B69CB6140F201131A4236D0036E9B0FC9
:10550000032B2BD0036823F0004303600023836642
:10551000C366036843F00043036003684FF08053A1
:105520004B604A6C62B14B7B002B3BD04FF4802028
:105530008B6813F0F87301D04FF4002318439047A1
:1055400010BD8C69D0F80832C3F3080CD0F80832CB
:10555000C3F3C0336344E31ACB61CBE712F0040F0B
:10556000D0D112F4807FD9D0CCE70B7893B1D0F8AA
:10557000043343F48033C0F80433D0F8043323F405
:105580008033C0F80433D0F804330123C0F8C03F9F
:10559000D0F8C03F0B7B13B1044B4B60C1E74FF019
:1055A0008053FAE74FF40030C2E700BF000010104C
:1055B000034600294EDB11F0C00F0CD0002181669C
:1055C0004FF0805151602E4840F21712C3F8002F5F
:1055D000D3F8003F704711F4807F4CD111F0010FD8
:1055E0000ED050682749884201D0274833E0196E11
:1055F0004FF08050506011F0804F3ED02248E3E7DA
:1056000011F0020C07D051681E4A914201D01F4888
:10561000DAE71F48D8E711F0100004D04FF08051AE
:1056200051606046D0E710B4546816498C4208D0E7
:1056300040F21712C3F8002FD3F8003F5DF8044B77
:105640007047517B19B14FF488115160F0E74FF466
:10565000A011FAE70F48196821F0004119600021F4
:105660009966D966196841F0004119601B684FF0CE
:105670008053536070470848EDE70348EBE700BFED
:105680000820AA00000013100620AA000520AA0086
:105690000420AA000320AA000720AA0010B504468F
:1056A000006800B910BD012002F0C0FC2368013B76
:1056B00023600BB10020F5E74FF00040F2E770B532
:1056C00005460C4691F8243073B9CB6A63B94B6C2C
:1056D0000BB108209847E36AB3FA83F35B0984F8B7
:1056E00024300123C5F8883F94F82430B3B163789F
:1056F0002BB12B6813F4006F0ED0802200E0012242
:10570000FF212846FFF7FEFD236B03442363236A32
:1057100043F00803236270BD4022F1E7E26A012AE8
:1057200010D96378002B3AD0013AA16A2846FFF7D6
:10573000CCFD236B03442363E36A1B1AE362A36A71
:105740001844A062D5F80832C3F30803802BE2D0D6
:10575000E36A012BDFD1FDF718F9A36A1B78C5F8BE
:1057600040324026C5F8806FD5F8803FFDF711F92B
:10577000236B013323630023E362A36A0133A36233
:10578000C5F8886F6378002BC5D0236A43F0020305
:105790002362636C002BBED004209847BBE7012234
:1057A000C3E738B50C464B68B3F5A81F05D00546CE
:1057B0004B68B3F5A01F04D038BD4FF4C0134B6045
:1057C000FAE74A69012A10D94B78002B2FD0013A09
:1057D00021692846FFF779FDA3690344A361636942
:1057E0001B1A6361236918442061D5F80832C3F39A
:1057F0000803802B02D06369012B1AD06369002B48
:10580000DAD1237B43B34023C5F8883F4FF4A81374
:1058100063606378002BCFD0A36843F40033A360A8
:10582000636C002BC8D04FF480309847C4E7012246
:10583000CEE7FDF7AAF823691B78C5F8403240236C
:10584000C5F8803FD5F8803FFDF7A3F8A369013381
:10585000A36100236361D1E70023C5F8883F4FF4BB
:10586000B0136360D5E738B505460C464B68B3F511
:10587000881F03D0B3F5901F1AD038BDD0F840234D
:105880000B691A708B6901338B614B69013B4B616A
:105890002BB10B6901330B6104238366EDE70B7BAE
:1058A0001BB14FF4C0136360E7E74FF4B013FAE79E
:1058B0004A690969FFF7CFFCA3690344A3616369DF
:1058C0001B1A6361226910442061012B13D9402BFC
:1058D00032D8023B2A6812F4006F2FD08022934204
:1058E00000D301BED5F8042322F0FF02DBB213433C
:1058F000C5F80433C1E72B6E23F480732B6663690C
:10590000012B06D00023C5F8C83F4FF4B0136360E5
:10591000B3E72B6813F4006F0CD0802303B901BEEA
:10592000D5F8043323F0FF03C5F804334FF488138C
:105930006360A2E74023F1E73F23CBE74022CEE7B5
:1059400038B50546CB6B002B47D00C460B786BB9AE
:105950000123C366D0F84013A26B236CD154236C8F
:1059600001332364E36B013BE3633BE0D0F80423A2
:10597000D2B20132896BFFF76EFC236C03442364BF
:10598000E36B1B1AE363A26B1044A063802B05D961
:10599000A3F18002802A1CD8813B09E02B6E43F4DE
:1059A00000432B66E36B03B1013B0022C5F8C82F0F
:1059B0002A6812F4006F0ED08022934200D301BEF9
:1059C000D5F8042322F0FF02DBB21343C5F80433F9
:1059D00008E03F23ECE74022EFE70223C366002301
:1059E000C0F8C83F38BD70B504460D468B6C63B334
:1059F000006810F4803005D0D4F84C0F10F040004F
:105A000000D00220226E12F4006F06D1D4F84C2F81
:105A100012F0800200D001221043C0B19847012348
:105A2000C4F8C03FD4F8C03F024648B91023C4F8B8
:105A3000403FD4F8403F40F2D113C4F8483F07E05C
:105A400040F2C113C4F8483F02E0002200E0002207
:105A5000D4F8043243F48033C4F80432D4F8043266
:105A600023F48033C4F80432D4F80432DAB90123C1
:105A7000E366BAB9666E06F010066B6C13B1A6B198
:105A8000012098479EB141F202036B602B6A43F0FC
:105A900001032B626B6B2B63002385F824300123F9
:105AA000C4F8883F70BD0223E2E70220E9E741F233
:105AB00001036B602B6A43F010032B620123C4F8CF
:105AC000C83F2B78B3B1EE6BA6B1236E43F40053FD
:105AD0002366EE6B802E05D9A6F18003802B1AD8A1
:105AE000813E07E0013E236E43F40043236600231A
:105AF000C4F8C83F236813F4006F0ED080239E4281
:105B000000D301BED4F8043323F0FF03F6B21E43E2
:105B1000C4F80463C6E73F26ECE74023EFE7000044
:105B2000002800F0AB800346002900F0A980002A7D
:105B300000F0A88010B408780138C0B2022800D95B
:105B400001BE487810B1487900B101BE91F9030057
:105B5000002837DB087910F0010F00D001BE08697A
:105B6000102800D901BEC868102800D901BE4879A4
:105B700050B34FF48030CC7944B34FF48074204359
:105B80001860186840F400601860887900BB4FF412
:105B900000640869013800F00F002043CC6804F16C
:105BA000FF3C4FEA0C1C5FFA8CFC40EA0C000C78BE
:105BB00040EA84701866087801280BD0087A50B142
:105BC000012008E001BEC5E70020D4E70024D6E7A5
:105BD0000024DEE700200446002844D040F20730CD
:105BE000C3F80003002C41D02748186748780028E4
:105BF0003ED07F20C3F80403C8784000C0B291F8BB
:105C000004C040EA0C40C3F810032048C3F8000267
:105C1000887878B34020C3F804020020C3F8C80E87
:105C2000C3F8880EC3F8C80FC3F8880FC3F8080F6D
:105C30000878022820D040F2D110C3F8480F4B78E2
:105C400013708B7853704FF0805353600020906036
:105C5000906110621064D0631063D06250649064ED
:105C60005DF8044B704740F20710B9E70848BCE7FD
:105C70000020BFE70120CEE70020DEE7054870479F
:105C8000044870470348704703002A0007010100D9
:105C900013102A000120AA00104B03604FF60833AE
:105CA00003660F4B036740F20712C0F8002300237E
:105CB000C0F80433C0F81033C0F80022C0F8043232
:105CC000C0F8C83EC0F8883EC0F8C83FC0F8883F5A
:105CD000C0F8083FC0F8483F704700BF0F000003FE
:105CE00013102A00036823F0004303604FF0805331
:105CF0004B6000238B600B627047000038B505686D
:105D000042684B1E072B56D8DFE803F004245533B6
:105D1000555555400023C5F8483F5368B3F1805F9F
:105D200005D040F2D113C5F8483F244C44E02C681C
:105D300014F4807405D040F21113C5F8483F0024D4
:105D40003AE011462846FFF7CDFF40F2D113C5F8DF
:105D5000483F31E02C6814F4807405D040F2D11330
:105D6000C5F8483F002427E02B6843F000432B6030
:105D700022E02C6814F480741ED00123C5F8883EFC
:105D80002B6F23F002032B67002415E02C6814F41A
:105D900080740BD02B6F43F002032B670024C5F8EF
:105DA000884E40F2D113C5F8483F05E02B6843F018
:105DB00000432B6000E0014C204638BDFF0042004C
:105DC00010B5046842684B1E072B05D8DFE803F0C6
:105DD0000619041F0404041F0E4810BD0023C4F854
:105DE000483F5368B3F1805F05D00A4840F2D113B1
:105DF000C4F8483FF1E711462046FFF773FF002043
:105E0000F4E7236843F0004323600020E5E7002027
:105E1000E3E700BFFF0042000B4601B901BE026E7E
:105E2000920F012A0BD043B3026EC2F30312006E2D
:105E300000F00F0010440230B3FBF0F07047104A3E
:105E40001A4410498A4214D9A3F5BD12A2F5D662AC
:105E500001F5611101F561618A420CD9A3F5710365
:105E6000A3F53343084A934201D9002070470748FD
:105E7000704707487047074870471846704700BF8B
:105E800020AD88FF405B730040555C0440420F002A
:105E9000801A0600A08601002DE9F04104469646CE
:105EA00002B901BE4A1E634B9A4200D901BE236E5D
:105EB0009B0F012B10D05F4B9A422FD85E4B99421B
:105EC00017D8AEF5BD13A3F5D6635C4A93424ED9FD
:105ED0004FF00008012724E071462046FFF79CFFA1
:105EE000D4F8003323F40073C4F80033544B236711
:105EF00093E0544B994208D8534B7344534A93420E
:105F00003CD94FF0000801270BE0514B7344514A34
:105F100093423BD94FF00008012702E04FF0000800
:105F20000127002F40F084804B4AB2FBFEF2B5FB04
:105F3000F2F303FB02F0A84200D20133102B00D988
:105F400010230F2B8CBF00250125B6FBF2FC0CFBA8
:105F500002F2B24201D20CF1010CBCF1100F01D9D6
:105F60004FF0100C03EB0C00BEFBF0F023E04FF001
:105F7000000841F2883635464746D2E74FF0000820
:105F80004FF461764FF4C8654746CAE74FF0010801
:105F90004FF4BE764FF41B750027C2E7BCF10F0F1C
:105FA00005D80CF1010C0F2B8CBF0025012503EB4C
:105FB0000C00BEFBF0F088420AD903EB0C021F2A4A
:105FC00006D8002DEAD00F2BF1D801333D46EEE77D
:105FD000B8F1000F23D0D4F8002342F40072C4F8C3
:105FE00000231E4A2267DA1F092A00D901BE226E49
:105FF00022F0F002013B1B01DBB213432366ACF13C
:1060000005030B2B00D901BE226E22F00F020CF10A
:10601000FF3303F00F0313432366BDE8F081D4F888
:10602000002322F40072C4F80023054A2267DAE74D
:106030000020F2E73F420F00A0860100502D19001A
:1060400013102A00801A060020AD88FFA04321000B
:10605000807E25FFC02BAF0000CA9A3B03002A00B8
:106060008868704710B504460B46002966D0596809
:1060700009B1996801B901BE93F9001000295FDBED
:106080000021C4F8481F516811F0805F00F088803B
:1060900019784900C9B241F001014FF48030906095
:1060A000586810619868506100209061D0611B7B36
:1060B00013730123537340F21713C4F8003FD4F84D
:1060C000003FD4F8043243F48033C4F80432D4F8E7
:1060D000043223F48033C4F80432D4F80432536811
:1060E000B3F1805F2ED0636E13F0200F2FD0092301
:1060F000A366C4F8401213787BB3137B6BBB536960
:10610000012B2AD9236E43F4807323665369802BB5
:106110001FD8023B216811F4006F1CD080218B42F4
:1061200000D301BED4F8041321F0FF01DBB20B430E
:10613000C4F804334FF4901353601EE001BE96E799
:1061400001BE9DE7C4F840120223A366D3E70123F2
:10615000CEE73F23DEE74021E1E7236813F4006F39
:106160001CD0802303B901BED4F8043323F0FF030D
:10617000C4F804334FF488135360FCF706FC012382
:10618000C4F8C83F40F21313C4F8083FFCF701FC01
:10619000002040F2D113C4F8483F10BD4023E1E78E
:1061A0000048F6E70220AA0070B582B00546069EB8
:1061B00011F0800F00D001BE2B48834200D901BEF0
:1061C000012A00D901BE0020C5F8480F7068B0F15F
:1061D000805F06D0254840F2D113C5F8483F02B091
:1061E00070BD4FF47A7000FB03F30193204B736092
:1061F000012A14BF00230123737340F21713C5F85B
:10620000003FD5F8003F0423C5F8C03FD5F8C03F94
:10621000D5F8043243F48033C5F80432D5F804329B
:1062200023F48033C5F80432D5F804324900C9B2EA
:106230000A43C5F840220223AB66D5F8004F24F08C
:10624000F804E405E40DD5F8401F01F0C0010C434B
:1062500001A8FFF723FA54EA0001EED0324628469F
:10626000FFF7A6F9B7E700BF378941000220AA006F
:10627000000013102DE9F04182B005460F4690460C
:10628000089E11F0800F00D001BE254A934200D92C
:1062900001BEB8F1010F00D901BE726812F4801F6F
:1062A0003CD04FF47A7202FB03F301931D4B7360F1
:1062B000B8F1010F14BF0023012373736B6E13F049
:1062C000200F1ED00923AB66686E10F020001DD091
:1062D0007A00D2B242EA0802C5F84022D5F8004F4F
:1062E00024F0F804E405E40D01A8FFF7D7F92043F2
:1062F000F4D0324601462846FFF75AF902B0BDE80D
:10630000F0810123DFE701A8FFF7C8F918B9AB6EE8
:1063100013F0010FF7D10028EBD1D9E70248EDE7E0
:1063200037894100000013100220AA0070B582B026
:1063300005461646114B994200D901BE736813F405
:10634000801F18D04FF47A7303FB01F101911823D9
:10635000AB66D5F8004F24F0EE04E405E40D01A887
:10636000FFF79CF954EA0001F3D032462846FFF7C4
:106370001FF902B070BD0248FBE700BF378941003A
:106380000220AA002DE9F04383B006460F46DDF84F
:10639000288091467AB11F4A934200D901BE012F4D
:1063A00000D901BED8F80420B2F5881F05D01A48DC
:1063B00003B0BDE8F08301BEEDE74FF47A7202FB53
:1063C00003F30193D6F8C05F05F00405D6F8004F3B
:1063D00024F0FE04E405E40D01A8FFF75FF944EAA8
:1063E00000010DB90029EDD045B1D6F8403389F848
:1063F00000300523C6F8C03FD6F8C03F42463046BD
:10640000FFF7D6F80028D3D1002FD1D10423B366EB
:10641000CEE700BF378941000220AA0070B582B0E4
:1064200005461E46114B9A4200D901BE7368B3F56A
:10643000A01F02D00E4802B070BD4FF47A7303FB68
:1064400002F20192C5F84012D5F8004F24F0F8048A
:10645000E405E40D01A8FFF721F954EA0001F3D0A7
:1064600032462846FFF7A4F8E5E700BF3789410028
:106470000220AA0070B504460E46D0F88C3E13F0F8
:10648000010F07D04FF480534B600123C0F8803ECA
:10649000D0F8803ED4F84C5F40F201131D421FD06B
:1064A000336A15F4807F19D04FF48072134333623E
:1064B0000023C4F8C83F45F01005D4F8CC3F13F0D2
:1064C000010F1FD115F0100F26D115F0C00F2FD1DD
:1064D000D4F88C3F13F0410F39D170BD8022E5E72D
:1064E00015F0100FE9D0D4F80833C3F30803002BDC
